{
  "data": {
    "bytecode": {
      "linkReferences": {},
      "object": "608060405234801561000f575f80fd5b50612bd48061001d5f395ff3fe608060405234801561000f575f80fd5b5060043610610135575f3560e01c80639e1de656116100b6578063cba49c211161007a578063cba49c21146103af578063da0bf48a146103df578063df2ed0f21461040f578063e111fc5014610447578063f9eacd3b14610477578063fa1b34c31461049357610135565b80639e1de656146102dd5780639f132fb114610317578063b22898f814610347578063bc4a1c5e14610377578063bd9a5f4c1461039357610135565b80635bd48d8c116100fd5780635bd48d8c146102155780635c94f7ed14610231578063892f6b6614610261578063951f54b61461027d5780639a5f3628146102ad57610135565b806311a54a57146101395780631f59ba5614610155578063417043391461018557806343eeccfe146101b55780634b8d8ac4146101e5575b5f80fd5b610153600480360381019061014e9190611fa8565b6104b1565b005b61016f600480360381019061016a919061201e565b610503565b60405161017c91906120df565b60405180910390f35b61019f600480360381019061019a9190612132565b6105b6565b6040516101ac91906120df565b60405180910390f35b6101cf60048036038101906101ca919061201e565b61067f565b6040516101dc919061228f565b60405180910390f35b6101ff60048036038101906101fa919061201e565b610771565b60405161020c919061228f565b60405180910390f35b61022f600480360381019061022a91906122af565b610863565b005b61024b6004803603810190610246919061201e565b610a66565b60405161025891906124e8565b60405180910390f35b61027b6004803603810190610276919061252b565b610a93565b005b6102976004803603810190610292919061201e565b610aba565b6040516102a491906124e8565b60405180910390f35b6102c760048036038101906102c29190612132565b610ae7565b6040516102d491906120df565b60405180910390f35b6102f760048036038101906102f2919061201e565b610bb0565b60405161030e9b9a99989796959493929190612585565b60405180910390f35b610331600480360381019061032c919061201e565b6111e0565b60405161033e91906124e8565b60405180910390f35b610361600480360381019061035c919061201e565b611207565b60405161036e91906120df565b60405180910390f35b610391600480360381019061038c91906122af565b6112ba565b005b6103ad60048036038101906103a8919061267b565b61146d565b005b6103c960048036038101906103c49190612790565b611582565b6040516103d691906120df565b60405180910390f35b6103f960048036038101906103f49190612132565b611628565b60405161040691906120df565b60405180910390f35b6104296004803603810190610424919061201e565b6116f1565b60405161043e999897969594939291906127bb565b60405180910390f35b610461600480360381019061045c919061201e565b611c09565b60405161046e91906120df565b60405180910390f35b610491600480360381019061048c919061201e565b611cbb565b005b61049b611ce1565b6040516104a8919061228f565b60405180910390f35b6009826040516104c191906128bf565b908152602001604051809103902081908060018154018082558091505060019003905f5260205f20015f9091909190915090816104fe9190612acf565b505050565b6007818051602081018201805184825260208301602085012081835280955050505050505f91509050805461053790612902565b80601f016020809104026020016040519081016040528092919081815260200182805461056390612902565b80156105ae5780601f10610585576101008083540402835291602001916105ae565b820191905f5260205f20905b81548152906001019060200180831161059157829003601f168201915b505050505081565b60098280516020810182018051848252602083016020850120818352809550505050505081815481106105e7575f80fd5b905f5260205f20015f9150915050805461060090612902565b80601f016020809104026020016040519081016040528092919081815260200182805461062c90612902565b80156106775780601f1061064e57610100808354040283529160200191610677565b820191905f5260205f20905b81548152906001019060200180831161065a57829003601f168201915b505050505081565b606060098260405161069191906128bf565b9081526020016040518091039020805480602002602001604051908101604052809291908181526020015f905b82821015610766578382905f5260205f200180546106db90612902565b80601f016020809104026020016040519081016040528092919081815260200182805461070790612902565b80156107525780601f1061072957610100808354040283529160200191610752565b820191905f5260205f20905b81548152906001019060200180831161073557829003601f168201915b5050505050815260200190600101906106be565b505050509050919050565b606060058260405161078391906128bf565b9081526020016040518091039020805480602002602001604051908101604052809291908181526020015f905b82821015610858578382905f5260205f200180546107cd90612902565b80601f01602080910402602001604051908101604052809291908181526020018280546107f990612902565b80156108445780601f1061081b57610100808354040283529160200191610844565b820191905f5260205f20905b81548152906001019060200180831161082757829003601f168201915b5050505050815260200190600101906107b0565b505050509050919050565b61086b611db5565b8b815f01819052508a8160200181905250898160400181905250878160800181905250888160600181905250868160a00181905250828160c00181905250838160e0018190525081816101000181905250600a88908060018154018082558091505060019003905f5260205f20015f9091909190915090816108ed9190612acf565b508b5f896040516108fe91906128bf565b908152602001604051809103902090816109189190612acf565b508060038960405161092a91906128bf565b90815260200160405180910390205f820151815f01908161094b9190612acf565b5060208201518160010190816109619190612acf565b5060408201518160020190816109779190612acf565b50606082015181600301908161098d9190612acf565b5060808201518160040190816109a39190612acf565b5060a08201518160050190816109b99190612acf565b5060c08201518160060190816109cf9190612acf565b5060e08201518160070190816109e59190612acf565b506101008201518160080190816109fc9190612acf565b509050508560068d604051610a1191906128bf565b90815260200160405180910390209081610a2b9190612acf565b508460078d604051610a3d91906128bf565b90815260200160405180910390209081610a579190612acf565b50505050505050505050505050565b6008818051602081018201805184825260208301602085012081835280955050505050505f915090505481565b80600883604051610aa491906128bf565b9081526020016040518091039020819055505050565b6001818051602081018201805184825260208301602085012081835280955050505050505f915090505481565b6005828051602081018201805184825260208301602085012081835280955050505050508181548110610b18575f80fd5b905f5260205f20015f91509150508054610b3190612902565b80601f0160208091040260200160405190810160405280929190818152602001828054610b5d90612902565b8015610ba85780601f10610b7f57610100808354040283529160200191610ba8565b820191905f5260205f20905b815481529060010190602001808311610b8b57829003601f168201915b505050505081565b6002818051602081018201805184825260208301602085012081835280955050505050505f91509050805f018054610be790612902565b80601f0160208091040260200160405190810160405280929190818152602001828054610c1390612902565b8015610c5e5780601f10610c3557610100808354040283529160200191610c5e565b820191905f5260205f20905b815481529060010190602001808311610c4157829003601f168201915b505050505090806001018054610c7390612902565b80601f0160208091040260200160405190810160405280929190818152602001828054610c9f90612902565b8015610cea5780601f10610cc157610100808354040283529160200191610cea565b820191905f5260205f20905b815481529060010190602001808311610ccd57829003601f168201915b505050505090806002018054610cff90612902565b80601f0160208091040260200160405190810160405280929190818152602001828054610d2b90612902565b8015610d765780601f10610d4d57610100808354040283529160200191610d76565b820191905f5260205f20905b815481529060010190602001808311610d5957829003601f168201915b505050505090806003018054610d8b90612902565b80601f0160208091040260200160405190810160405280929190818152602001828054610db790612902565b8015610e025780601f10610dd957610100808354040283529160200191610e02565b820191905f5260205f20905b815481529060010190602001808311610de557829003601f168201915b505050505090806004018054610e1790612902565b80601f0160208091040260200160405190810160405280929190818152602001828054610e4390612902565b8015610e8e5780601f10610e6557610100808354040283529160200191610e8e565b820191905f5260205f20905b815481529060010190602001808311610e7157829003601f168201915b505050505090806005018054610ea390612902565b80601f0160208091040260200160405190810160405280929190818152602001828054610ecf90612902565b8015610f1a5780601f10610ef157610100808354040283529160200191610f1a565b820191905f5260205f20905b815481529060010190602001808311610efd57829003601f168201915b505050505090806006018054610f2f90612902565b80601f0160208091040260200160405190810160405280929190818152602001828054610f5b90612902565b8015610fa65780601f10610f7d57610100808354040283529160200191610fa6565b820191905f5260205f20905b815481529060010190602001808311610f8957829003601f168201915b505050505090806007018054610fbb90612902565b80601f0160208091040260200160405190810160405280929190818152602001828054610fe790612902565b80156110325780601f1061100957610100808354040283529160200191611032565b820191905f5260205f20905b81548152906001019060200180831161101557829003601f168201915b50505050509080600801805461104790612902565b80601f016020809104026020016040519081016040528092919081815260200182805461107390612902565b80156110be5780601f10611095576101008083540402835291602001916110be565b820191905f5260205f20905b8154815290600101906020018083116110a157829003601f168201915b5050505050908060090180546110d390612902565b80601f01602080910402602001604051908101604052809291908181526020018280546110ff90612902565b801561114a5780601f106111215761010080835404028352916020019161114a565b820191905f5260205f20905b81548152906001019060200180831161112d57829003601f168201915b50505050509080600a01805461115f90612902565b80601f016020809104026020016040519081016040528092919081815260200182805461118b90612902565b80156111d65780601f106111ad576101008083540402835291602001916111d6565b820191905f5260205f20905b8154815290600101906020018083116111b957829003601f168201915b505050505090508b565b5f6001826040516111f191906128bf565b9081526020016040518091039020549050919050565b6006818051602081018201805184825260208301602085012081835280955050505050505f91509050805461123b90612902565b80601f016020809104026020016040519081016040528092919081815260200182805461126790612902565b80156112b25780601f10611289576101008083540402835291602001916112b2565b820191905f5260205f20905b81548152906001019060200180831161129557829003601f168201915b505050505081565b6112c2611e01565b8b815f01819052508a8160200181905250898160400181905250888160600181905250878160800181905250868160a00181905250858160c00181905250848160e001819052508381610100018190525082816101200181905250818161014001819052506001808860405161133891906128bf565b9081526020016040518091039020819055508060028860405161135b91906128bf565b90815260200160405180910390205f820151815f01908161137c9190612acf565b5060208201518160010190816113929190612acf565b5060408201518160020190816113a89190612acf565b5060608201518160030190816113be9190612acf565b5060808201518160040190816113d49190612acf565b5060a08201518160050190816113ea9190612acf565b5060c08201518160060190816114009190612acf565b5060e08201518160070190816114169190612acf565b5061010082015181600801908161142d9190612acf565b506101208201518160090190816114449190612acf565b5061014082015181600a01908161145b9190612acf565b50905050505050505050505050505050565b60048660405161147d91906128bf565b908152602001604051809103902085908060018154018082558091505060019003905f5260205f20015f9091909190915090816114ba9190612acf565b506005836040516114cb91906128bf565b908152602001604051809103902084908060018154018082558091505060019003905f5260205f20015f9091909190915090816115089190612acf565b5060098660405161151991906128bf565b908152602001604051809103902082908060018154018082558091505060019003905f5260205f20015f9091909190915090816115569190612acf565b508060088360405161156891906128bf565b908152602001604051809103902081905550505050505050565b600a8181548110611591575f80fd5b905f5260205f20015f9150905080546115a990612902565b80601f01602080910402602001604051908101604052809291908181526020018280546115d590612902565b80156116205780601f106115f757610100808354040283529160200191611620565b820191905f5260205f20905b81548152906001019060200180831161160357829003601f168201915b505050505081565b6004828051602081018201805184825260208301602085012081835280955050505050508181548110611659575f80fd5b905f5260205f20015f9150915050805461167290612902565b80601f016020809104026020016040519081016040528092919081815260200182805461169e90612902565b80156116e95780601f106116c0576101008083540402835291602001916116e9565b820191905f5260205f20905b8154815290600101906020018083116116cc57829003601f168201915b505050505081565b6003818051602081018201805184825260208301602085012081835280955050505050505f91509050805f01805461172890612902565b80601f016020809104026020016040519081016040528092919081815260200182805461175490612902565b801561179f5780601f106117765761010080835404028352916020019161179f565b820191905f5260205f20905b81548152906001019060200180831161178257829003601f168201915b5050505050908060010180546117b490612902565b80601f01602080910402602001604051908101604052809291908181526020018280546117e090612902565b801561182b5780601f106118025761010080835404028352916020019161182b565b820191905f5260205f20905b81548152906001019060200180831161180e57829003601f168201915b50505050509080600201805461184090612902565b80601f016020809104026020016040519081016040528092919081815260200182805461186c90612902565b80156118b75780601f1061188e576101008083540402835291602001916118b7565b820191905f5260205f20905b81548152906001019060200180831161189a57829003601f168201915b5050505050908060030180546118cc90612902565b80601f01602080910402602001604051908101604052809291908181526020018280546118f890612902565b80156119435780601f1061191a57610100808354040283529160200191611943565b820191905f5260205f20905b81548152906001019060200180831161192657829003601f168201915b50505050509080600401805461195890612902565b80601f016020809104026020016040519081016040528092919081815260200182805461198490612902565b80156119cf5780601f106119a6576101008083540402835291602001916119cf565b820191905f5260205f20905b8154815290600101906020018083116119b257829003601f168201915b5050505050908060050180546119e490612902565b80601f0160208091040260200160405190810160405280929190818152602001828054611a1090612902565b8015611a5b5780601f10611a3257610100808354040283529160200191611a5b565b820191905f5260205f20905b815481529060010190602001808311611a3e57829003601f168201915b505050505090806006018054611a7090612902565b80601f0160208091040260200160405190810160405280929190818152602001828054611a9c90612902565b8015611ae75780601f10611abe57610100808354040283529160200191611ae7565b820191905f5260205f20905b815481529060010190602001808311611aca57829003601f168201915b505050505090806007018054611afc90612902565b80601f0160208091040260200160405190810160405280929190818152602001828054611b2890612902565b8015611b735780601f10611b4a57610100808354040283529160200191611b73565b820191905f5260205f20905b815481529060010190602001808311611b5657829003601f168201915b505050505090806008018054611b8890612902565b80601f0160208091040260200160405190810160405280929190818152602001828054611bb490612902565b8015611bff5780601f10611bd657610100808354040283529160200191611bff565b820191905f5260205f20905b815481529060010190602001808311611be257829003601f168201915b5050505050905089565b5f818051602081018201805184825260208301602085012081835280955050505050505f915090508054611c3c90612902565b80601f0160208091040260200160405190810160405280929190818152602001828054611c6890612902565b8015611cb35780601f10611c8a57610100808354040283529160200191611cb3565b820191905f5260205f20905b815481529060010190602001808311611c9657829003601f168201915b505050505081565b5f600182604051611ccc91906128bf565b90815260200160405180910390208190555050565b6060600a805480602002602001604051908101604052809291908181526020015f905b82821015611dac578382905f5260205f20018054611d2190612902565b80601f0160208091040260200160405190810160405280929190818152602001828054611d4d90612902565b8015611d985780601f10611d6f57610100808354040283529160200191611d98565b820191905f5260205f20905b815481529060010190602001808311611d7b57829003601f168201915b505050505081526020019060010190611d04565b50505050905090565b6040518061012001604052806060815260200160608152602001606081526020016060815260200160608152602001606081526020016060815260200160608152602001606081525090565b60405180610160016040528060608152602001606081526020016060815260200160608152602001606081526020016060815260200160608152602001606081526020016060815260200160608152602001606081525090565b5f604051905090565b5f80fd5b5f80fd5b5f80fd5b5f80fd5b5f601f19601f8301169050919050565b7f4e487b71000000000000000000000000000000000000000000000000000000005f52604160045260245ffd5b611eba82611e74565b810181811067ffffffffffffffff82111715611ed957611ed8611e84565b5b80604052505050565b5f611eeb611e5b565b9050611ef78282611eb1565b919050565b5f67ffffffffffffffff821115611f1657611f15611e84565b5b611f1f82611e74565b9050602081019050919050565b828183375f83830152505050565b5f611f4c611f4784611efc565b611ee2565b905082815260208101848484011115611f6857611f67611e70565b5b611f73848285611f2c565b509392505050565b5f82601f830112611f8f57611f8e611e6c565b5b8135611f9f848260208601611f3a565b91505092915050565b5f8060408385031215611fbe57611fbd611e64565b5b5f83013567ffffffffffffffff811115611fdb57611fda611e68565b5b611fe785828601611f7b565b925050602083013567ffffffffffffffff81111561200857612007611e68565b5b61201485828601611f7b565b9150509250929050565b5f6020828403121561203357612032611e64565b5b5f82013567ffffffffffffffff8111156120505761204f611e68565b5b61205c84828501611f7b565b91505092915050565b5f81519050919050565b5f82825260208201905092915050565b5f5b8381101561209c578082015181840152602081019050612081565b5f8484015250505050565b5f6120b182612065565b6120bb818561206f565b93506120cb81856020860161207f565b6120d481611e74565b840191505092915050565b5f6020820190508181035f8301526120f781846120a7565b905092915050565b5f819050919050565b612111816120ff565b811461211b575f80fd5b50565b5f8135905061212c81612108565b92915050565b5f806040838503121561214857612147611e64565b5b5f83013567ffffffffffffffff81111561216557612164611e68565b5b61217185828601611f7b565b92505060206121828582860161211e565b9150509250929050565b5f81519050919050565b5f82825260208201905092915050565b5f819050602082019050919050565b5f82825260208201905092915050565b5f6121cf82612065565b6121d981856121b5565b93506121e981856020860161207f565b6121f281611e74565b840191505092915050565b5f61220883836121c5565b905092915050565b5f602082019050919050565b5f6122268261218c565b6122308185612196565b935083602082028501612242856121a6565b805f5b8581101561227d578484038952815161225e85826121fd565b945061226983612210565b925060208a01995050600181019050612245565b50829750879550505050505092915050565b5f6020820190508181035f8301526122a7818461221c565b905092915050565b5f805f805f805f805f805f6101608c8e0312156122cf576122ce611e64565b5b5f8c013567ffffffffffffffff8111156122ec576122eb611e68565b5b6122f88e828f01611f7b565b9b505060208c013567ffffffffffffffff81111561231957612318611e68565b5b6123258e828f01611f7b565b9a505060408c013567ffffffffffffffff81111561234657612345611e68565b5b6123528e828f01611f7b565b99505060608c013567ffffffffffffffff81111561237357612372611e68565b5b61237f8e828f01611f7b565b98505060808c013567ffffffffffffffff8111156123a05761239f611e68565b5b6123ac8e828f01611f7b565b97505060a08c013567ffffffffffffffff8111156123cd576123cc611e68565b5b6123d98e828f01611f7b565b96505060c08c013567ffffffffffffffff8111156123fa576123f9611e68565b5b6124068e828f01611f7b565b95505060e08c013567ffffffffffffffff81111561242757612426611e68565b5b6124338e828f01611f7b565b9450506101008c013567ffffffffffffffff81111561245557612454611e68565b5b6124618e828f01611f7b565b9350506101208c013567ffffffffffffffff81111561248357612482611e68565b5b61248f8e828f01611f7b565b9250506101408c013567ffffffffffffffff8111156124b1576124b0611e68565b5b6124bd8e828f01611f7b565b9150509295989b509295989b9093969950565b5f819050919050565b6124e2816124d0565b82525050565b5f6020820190506124fb5f8301846124d9565b92915050565b61250a816124d0565b8114612514575f80fd5b50565b5f8135905061252581612501565b92915050565b5f806040838503121561254157612540611e64565b5b5f83013567ffffffffffffffff81111561255e5761255d611e68565b5b61256a85828601611f7b565b925050602061257b85828601612517565b9150509250929050565b5f610160820190508181035f83015261259e818e6120a7565b905081810360208301526125b2818d6120a7565b905081810360408301526125c6818c6120a7565b905081810360608301526125da818b6120a7565b905081810360808301526125ee818a6120a7565b905081810360a083015261260281896120a7565b905081810360c083015261261681886120a7565b905081810360e083015261262a81876120a7565b905081810361010083015261263f81866120a7565b905081810361012083015261265481856120a7565b905081810361014083015261266981846120a7565b90509c9b505050505050505050505050565b5f805f805f8060c0878903121561269557612694611e64565b5b5f87013567ffffffffffffffff8111156126b2576126b1611e68565b5b6126be89828a01611f7b565b965050602087013567ffffffffffffffff8111156126df576126de611e68565b5b6126eb89828a01611f7b565b955050604087013567ffffffffffffffff81111561270c5761270b611e68565b5b61271889828a01611f7b565b945050606087013567ffffffffffffffff81111561273957612738611e68565b5b61274589828a01611f7b565b935050608087013567ffffffffffffffff81111561276657612765611e68565b5b61277289828a01611f7b565b92505060a061278389828a01612517565b9150509295509295509295565b5f602082840312156127a5576127a4611e64565b5b5f6127b28482850161211e565b91505092915050565b5f610120820190508181035f8301526127d4818c6120a7565b905081810360208301526127e8818b6120a7565b905081810360408301526127fc818a6120a7565b9050818103606083015261281081896120a7565b9050818103608083015261282481886120a7565b905081810360a083015261283881876120a7565b905081810360c083015261284c81866120a7565b905081810360e083015261286081856120a7565b905081810361010083015261287581846120a7565b90509a9950505050505050505050565b5f81905092915050565b5f61289982612065565b6128a38185612885565b93506128b381856020860161207f565b80840191505092915050565b5f6128ca828461288f565b915081905092915050565b7f4e487b71000000000000000000000000000000000000000000000000000000005f52602260045260245ffd5b5f600282049050600182168061291957607f821691505b60208210810361292c5761292b6128d5565b5b50919050565b5f819050815f5260205f209050919050565b5f6020601f8301049050919050565b5f82821b905092915050565b5f6008830261298e7fffffffffffffffffffffffffffffffffffffffffffffffffffffffffffffffff82612953565b6129988683612953565b95508019841693508086168417925050509392505050565b5f819050919050565b5f6129d36129ce6129c9846120ff565b6129b0565b6120ff565b9050919050565b5f819050919050565b6129ec836129b9565b612a006129f8826129da565b84845461295f565b825550505050565b5f90565b612a14612a08565b612a1f8184846129e3565b505050565b5b81811015612a4257612a375f82612a0c565b600181019050612a25565b5050565b601f821115612a8757612a5881612932565b612a6184612944565b81016020851015612a70578190505b612a84612a7c85612944565b830182612a24565b50505b505050565b5f82821c905092915050565b5f612aa75f1984600802612a8c565b1980831691505092915050565b5f612abf8383612a98565b9150826002028217905092915050565b612ad882612065565b67ffffffffffffffff811115612af157612af0611e84565b5b612afb8254612902565b612b06828285612a46565b5f60209050601f831160018114612b37575f8415612b25578287015190505b612b2f8582612ab4565b865550612b96565b601f198416612b4586612932565b5f5b82811015612b6c57848901518255600182019150602085019450602081019050612b47565b86831015612b895784890151612b85601f891682612a98565b8355505b6001600288020188555050505b50505050505056fea2646970667358221220ab07b0ae9d341318ba0c0b2150b7fe5e6ff461a9cac857e1687ba253435becf964736f6c63430008180033",
      "opcodes": "PUSH1 0x80 PUSH1 0x40 MSTORE CALLVALUE DUP1 ISZERO PUSH2 0xF JUMPI PUSH0 DUP1 REVERT JUMPDEST POP PUSH2 0x2BD4 DUP1 PUSH2 0x1D PUSH0 CODECOPY PUSH0 RETURN INVALID PUSH1 0x80 PUSH1 0x40 MSTORE CALLVALUE DUP1 ISZERO PUSH2 0xF JUMPI PUSH0 DUP1 REVERT JUMPDEST POP PUSH1 0x4 CALLDATASIZE LT PUSH2 0x135 JUMPI PUSH0 CALLDATALOAD PUSH1 0xE0 SHR DUP1 PUSH4 0x9E1DE656 GT PUSH2 0xB6 JUMPI DUP1 PUSH4 0xCBA49C21 GT PUSH2 0x7A JUMPI DUP1 PUSH4 0xCBA49C21 EQ PUSH2 0x3AF JUMPI DUP1 PUSH4 0xDA0BF48A EQ PUSH2 0x3DF JUMPI DUP1 PUSH4 0xDF2ED0F2 EQ PUSH2 0x40F JUMPI DUP1 PUSH4 0xE111FC50 EQ PUSH2 0x447 JUMPI DUP1 PUSH4 0xF9EACD3B EQ PUSH2 0x477 JUMPI DUP1 PUSH4 0xFA1B34C3 EQ PUSH2 0x493 JUMPI PUSH2 0x135 JUMP JUMPDEST DUP1 PUSH4 0x9E1DE656 EQ PUSH2 0x2DD JUMPI DUP1 PUSH4 0x9F132FB1 EQ PUSH2 0x317 JUMPI DUP1 PUSH4 0xB22898F8 EQ PUSH2 0x347 JUMPI DUP1 PUSH4 0xBC4A1C5E EQ PUSH2 0x377 JUMPI DUP1 PUSH4 0xBD9A5F4C EQ PUSH2 0x393 JUMPI PUSH2 0x135 JUMP JUMPDEST DUP1 PUSH4 0x5BD48D8C GT PUSH2 0xFD JUMPI DUP1 PUSH4 0x5BD48D8C EQ PUSH2 0x215 JUMPI DUP1 PUSH4 0x5C94F7ED EQ PUSH2 0x231 JUMPI DUP1 PUSH4 0x892F6B66 EQ PUSH2 0x261 JUMPI DUP1 PUSH4 0x951F54B6 EQ PUSH2 0x27D JUMPI DUP1 PUSH4 0x9A5F3628 EQ PUSH2 0x2AD JUMPI PUSH2 0x135 JUMP JUMPDEST DUP1 PUSH4 0x11A54A57 EQ PUSH2 0x139 JUMPI DUP1 PUSH4 0x1F59BA56 EQ PUSH2 0x155 JUMPI DUP1 PUSH4 0x41704339 EQ PUSH2 0x185 JUMPI DUP1 PUSH4 0x43EECCFE EQ PUSH2 0x1B5 JUMPI DUP1 PUSH4 0x4B8D8AC4 EQ PUSH2 0x1E5 JUMPI JUMPDEST PUSH0 DUP1 REVERT JUMPDEST PUSH2 0x153 PUSH1 0x4 DUP1 CALLDATASIZE SUB DUP2 ADD SWAP1 PUSH2 0x14E SWAP2 SWAP1 PUSH2 0x1FA8 JUMP JUMPDEST PUSH2 0x4B1 JUMP JUMPDEST STOP JUMPDEST PUSH2 0x16F PUSH1 0x4 DUP1 CALLDATASIZE SUB DUP2 ADD SWAP1 PUSH2 0x16A SWAP2 SWAP1 PUSH2 0x201E JUMP JUMPDEST PUSH2 0x503 JUMP JUMPDEST PUSH1 0x40 MLOAD PUSH2 0x17C SWAP2 SWAP1 PUSH2 0x20DF JUMP JUMPDEST PUSH1 0x40 MLOAD DUP1 SWAP2 SUB SWAP1 RETURN JUMPDEST PUSH2 0x19F PUSH1 0x4 DUP1 CALLDATASIZE SUB DUP2 ADD SWAP1 PUSH2 0x19A SWAP2 SWAP1 PUSH2 0x2132 JUMP JUMPDEST PUSH2 0x5B6 JUMP JUMPDEST PUSH1 0x40 MLOAD PUSH2 0x1AC SWAP2 SWAP1 PUSH2 0x20DF JUMP JUMPDEST PUSH1 0x40 MLOAD DUP1 SWAP2 SUB SWAP1 RETURN JUMPDEST PUSH2 0x1CF PUSH1 0x4 DUP1 CALLDATASIZE SUB DUP2 ADD SWAP1 PUSH2 0x1CA SWAP2 SWAP1 PUSH2 0x201E JUMP JUMPDEST PUSH2 0x67F JUMP JUMPDEST PUSH1 0x40 MLOAD PUSH2 0x1DC SWAP2 SWAP1 PUSH2 0x228F JUMP JUMPDEST PUSH1 0x40 MLOAD DUP1 SWAP2 SUB SWAP1 RETURN JUMPDEST PUSH2 0x1FF PUSH1 0x4 DUP1 CALLDATASIZE SUB DUP2 ADD SWAP1 PUSH2 0x1FA SWAP2 SWAP1 PUSH2 0x201E JUMP JUMPDEST PUSH2 0x771 JUMP JUMPDEST PUSH1 0x40 MLOAD PUSH2 0x20C SWAP2 SWAP1 PUSH2 0x228F JUMP JUMPDEST PUSH1 0x40 MLOAD DUP1 SWAP2 SUB SWAP1 RETURN JUMPDEST PUSH2 0x22F PUSH1 0x4 DUP1 CALLDATASIZE SUB DUP2 ADD SWAP1 PUSH2 0x22A SWAP2 SWAP1 PUSH2 0x22AF JUMP JUMPDEST PUSH2 0x863 JUMP JUMPDEST STOP JUMPDEST PUSH2 0x24B PUSH1 0x4 DUP1 CALLDATASIZE SUB DUP2 ADD SWAP1 PUSH2 0x246 SWAP2 SWAP1 PUSH2 0x201E JUMP JUMPDEST PUSH2 0xA66 JUMP JUMPDEST PUSH1 0x40 MLOAD PUSH2 0x258 SWAP2 SWAP1 PUSH2 0x24E8 JUMP JUMPDEST PUSH1 0x40 MLOAD DUP1 SWAP2 SUB SWAP1 RETURN JUMPDEST PUSH2 0x27B PUSH1 0x4 DUP1 CALLDATASIZE SUB DUP2 ADD SWAP1 PUSH2 0x276 SWAP2 SWAP1 PUSH2 0x252B JUMP JUMPDEST PUSH2 0xA93 JUMP JUMPDEST STOP JUMPDEST PUSH2 0x297 PUSH1 0x4 DUP1 CALLDATASIZE SUB DUP2 ADD SWAP1 PUSH2 0x292 SWAP2 SWAP1 PUSH2 0x201E JUMP JUMPDEST PUSH2 0xABA JUMP JUMPDEST PUSH1 0x40 MLOAD PUSH2 0x2A4 SWAP2 SWAP1 PUSH2 0x24E8 JUMP JUMPDEST PUSH1 0x40 MLOAD DUP1 SWAP2 SUB SWAP1 RETURN JUMPDEST PUSH2 0x2C7 PUSH1 0x4 DUP1 CALLDATASIZE SUB DUP2 ADD SWAP1 PUSH2 0x2C2 SWAP2 SWAP1 PUSH2 0x2132 JUMP JUMPDEST PUSH2 0xAE7 JUMP JUMPDEST PUSH1 0x40 MLOAD PUSH2 0x2D4 SWAP2 SWAP1 PUSH2 0x20DF JUMP JUMPDEST PUSH1 0x40 MLOAD DUP1 SWAP2 SUB SWAP1 RETURN JUMPDEST PUSH2 0x2F7 PUSH1 0x4 DUP1 CALLDATASIZE SUB DUP2 ADD SWAP1 PUSH2 0x2F2 SWAP2 SWAP1 PUSH2 0x201E JUMP JUMPDEST PUSH2 0xBB0 JUMP JUMPDEST PUSH1 0x40 MLOAD PUSH2 0x30E SWAP12 SWAP11 SWAP10 SWAP9 SWAP8 SWAP7 SWAP6 SWAP5 SWAP4 SWAP3 SWAP2 SWAP1 PUSH2 0x2585 JUMP JUMPDEST PUSH1 0x40 MLOAD DUP1 SWAP2 SUB SWAP1 RETURN JUMPDEST PUSH2 0x331 PUSH1 0x4 DUP1 CALLDATASIZE SUB DUP2 ADD SWAP1 PUSH2 0x32C SWAP2 SWAP1 PUSH2 0x201E JUMP JUMPDEST PUSH2 0x11E0 JUMP JUMPDEST PUSH1 0x40 MLOAD PUSH2 0x33E SWAP2 SWAP1 PUSH2 0x24E8 JUMP JUMPDEST PUSH1 0x40 MLOAD DUP1 SWAP2 SUB SWAP1 RETURN JUMPDEST PUSH2 0x361 PUSH1 0x4 DUP1 CALLDATASIZE SUB DUP2 ADD SWAP1 PUSH2 0x35C SWAP2 SWAP1 PUSH2 0x201E JUMP JUMPDEST PUSH2 0x1207 JUMP JUMPDEST PUSH1 0x40 MLOAD PUSH2 0x36E SWAP2 SWAP1 PUSH2 0x20DF JUMP JUMPDEST PUSH1 0x40 MLOAD DUP1 SWAP2 SUB SWAP1 RETURN JUMPDEST PUSH2 0x391 PUSH1 0x4 DUP1 CALLDATASIZE SUB DUP2 ADD SWAP1 PUSH2 0x38C SWAP2 SWAP1 PUSH2 0x22AF JUMP JUMPDEST PUSH2 0x12BA JUMP JUMPDEST STOP JUMPDEST PUSH2 0x3AD PUSH1 0x4 DUP1 CALLDATASIZE SUB DUP2 ADD SWAP1 PUSH2 0x3A8 SWAP2 SWAP1 PUSH2 0x267B JUMP JUMPDEST PUSH2 0x146D JUMP JUMPDEST STOP JUMPDEST PUSH2 0x3C9 PUSH1 0x4 DUP1 CALLDATASIZE SUB DUP2 ADD SWAP1 PUSH2 0x3C4 SWAP2 SWAP1 PUSH2 0x2790 JUMP JUMPDEST PUSH2 0x1582 JUMP JUMPDEST PUSH1 0x40 MLOAD PUSH2 0x3D6 SWAP2 SWAP1 PUSH2 0x20DF JUMP JUMPDEST PUSH1 0x40 MLOAD DUP1 SWAP2 SUB SWAP1 RETURN JUMPDEST PUSH2 0x3F9 PUSH1 0x4 DUP1 CALLDATASIZE SUB DUP2 ADD SWAP1 PUSH2 0x3F4 SWAP2 SWAP1 PUSH2 0x2132 JUMP JUMPDEST PUSH2 0x1628 JUMP JUMPDEST PUSH1 0x40 MLOAD PUSH2 0x406 SWAP2 SWAP1 PUSH2 0x20DF JUMP JUMPDEST PUSH1 0x40 MLOAD DUP1 SWAP2 SUB SWAP1 RETURN JUMPDEST PUSH2 0x429 PUSH1 0x4 DUP1 CALLDATASIZE SUB DUP2 ADD SWAP1 PUSH2 0x424 SWAP2 SWAP1 PUSH2 0x201E JUMP JUMPDEST PUSH2 0x16F1 JUMP JUMPDEST PUSH1 0x40 MLOAD PUSH2 0x43E SWAP10 SWAP9 SWAP8 SWAP7 SWAP6 SWAP5 SWAP4 SWAP3 SWAP2 SWAP1 PUSH2 0x27BB JUMP JUMPDEST PUSH1 0x40 MLOAD DUP1 SWAP2 SUB SWAP1 RETURN JUMPDEST PUSH2 0x461 PUSH1 0x4 DUP1 CALLDATASIZE SUB DUP2 ADD SWAP1 PUSH2 0x45C SWAP2 SWAP1 PUSH2 0x201E JUMP JUMPDEST PUSH2 0x1C09 JUMP JUMPDEST PUSH1 0x40 MLOAD PUSH2 0x46E SWAP2 SWAP1 PUSH2 0x20DF JUMP JUMPDEST PUSH1 0x40 MLOAD DUP1 SWAP2 SUB SWAP1 RETURN JUMPDEST PUSH2 0x491 PUSH1 0x4 DUP1 CALLDATASIZE SUB DUP2 ADD SWAP1 PUSH2 0x48C SWAP2 SWAP1 PUSH2 0x201E JUMP JUMPDEST PUSH2 0x1CBB JUMP JUMPDEST STOP JUMPDEST PUSH2 0x49B PUSH2 0x1CE1 JUMP JUMPDEST PUSH1 0x40 MLOAD PUSH2 0x4A8 SWAP2 SWAP1 PUSH2 0x228F JUMP JUMPDEST PUSH1 0x40 MLOAD DUP1 SWAP2 SUB SWAP1 RETURN JUMPDEST PUSH1 0x9 DUP3 PUSH1 0x40 MLOAD PUSH2 0x4C1 SWAP2 SWAP1 PUSH2 0x28BF JUMP JUMPDEST SWAP1 DUP2 MSTORE PUSH1 0x20 ADD PUSH1 0x40 MLOAD DUP1 SWAP2 SUB SWAP1 KECCAK256 DUP2 SWAP1 DUP1 PUSH1 0x1 DUP2 SLOAD ADD DUP1 DUP3 SSTORE DUP1 SWAP2 POP POP PUSH1 0x1 SWAP1 SUB SWAP1 PUSH0 MSTORE PUSH1 0x20 PUSH0 KECCAK256 ADD PUSH0 SWAP1 SWAP2 SWAP1 SWAP2 SWAP1 SWAP2 POP SWAP1 DUP2 PUSH2 0x4FE SWAP2 SWAP1 PUSH2 0x2ACF JUMP JUMPDEST POP POP POP JUMP JUMPDEST PUSH1 0x7 DUP2 DUP1 MLOAD PUSH1 0x20 DUP2 ADD DUP3 ADD DUP1 MLOAD DUP5 DUP3 MSTORE PUSH1 0x20 DUP4 ADD PUSH1 0x20 DUP6 ADD KECCAK256 DUP2 DUP4 MSTORE DUP1 SWAP6 POP POP POP POP POP POP PUSH0 SWAP2 POP SWAP1 POP DUP1 SLOAD PUSH2 0x537 SWAP1 PUSH2 0x2902 JUMP JUMPDEST DUP1 PUSH1 0x1F ADD PUSH1 0x20 DUP1 SWAP2 DIV MUL PUSH1 0x20 ADD PUSH1 0x40 MLOAD SWAP1 DUP2 ADD PUSH1 0x40 MSTORE DUP1 SWAP3 SWAP2 SWAP1 DUP2 DUP2 MSTORE PUSH1 0x20 ADD DUP3 DUP1 SLOAD PUSH2 0x563 SWAP1 PUSH2 0x2902 JUMP JUMPDEST DUP1 ISZERO PUSH2 0x5AE JUMPI DUP1 PUSH1 0x1F LT PUSH2 0x585 JUMPI PUSH2 0x100 DUP1 DUP4 SLOAD DIV MUL DUP4 MSTORE SWAP2 PUSH1 0x20 ADD SWAP2 PUSH2 0x5AE JUMP JUMPDEST DUP3 ADD SWAP2 SWAP1 PUSH0 MSTORE PUSH1 0x20 PUSH0 KECCAK256 SWAP1 JUMPDEST DUP2 SLOAD DUP2 MSTORE SWAP1 PUSH1 0x1 ADD SWAP1 PUSH1 0x20 ADD DUP1 DUP4 GT PUSH2 0x591 JUMPI DUP3 SWAP1 SUB PUSH1 0x1F AND DUP3 ADD SWAP2 JUMPDEST POP POP POP POP POP DUP2 JUMP JUMPDEST PUSH1 0x9 DUP3 DUP1 MLOAD PUSH1 0x20 DUP2 ADD DUP3 ADD DUP1 MLOAD DUP5 DUP3 MSTORE PUSH1 0x20 DUP4 ADD PUSH1 0x20 DUP6 ADD KECCAK256 DUP2 DUP4 MSTORE DUP1 SWAP6 POP POP POP POP POP POP DUP2 DUP2 SLOAD DUP2 LT PUSH2 0x5E7 JUMPI PUSH0 DUP1 REVERT JUMPDEST SWAP1 PUSH0 MSTORE PUSH1 0x20 PUSH0 KECCAK256 ADD PUSH0 SWAP2 POP SWAP2 POP POP DUP1 SLOAD PUSH2 0x600 SWAP1 PUSH2 0x2902 JUMP JUMPDEST DUP1 PUSH1 0x1F ADD PUSH1 0x20 DUP1 SWAP2 DIV MUL PUSH1 0x20 ADD PUSH1 0x40 MLOAD SWAP1 DUP2 ADD PUSH1 0x40 MSTORE DUP1 SWAP3 SWAP2 SWAP1 DUP2 DUP2 MSTORE PUSH1 0x20 ADD DUP3 DUP1 SLOAD PUSH2 0x62C SWAP1 PUSH2 0x2902 JUMP JUMPDEST DUP1 ISZERO PUSH2 0x677 JUMPI DUP1 PUSH1 0x1F LT PUSH2 0x64E JUMPI PUSH2 0x100 DUP1 DUP4 SLOAD DIV MUL DUP4 MSTORE SWAP2 PUSH1 0x20 ADD SWAP2 PUSH2 0x677 JUMP JUMPDEST DUP3 ADD SWAP2 SWAP1 PUSH0 MSTORE PUSH1 0x20 PUSH0 KECCAK256 SWAP1 JUMPDEST DUP2 SLOAD DUP2 MSTORE SWAP1 PUSH1 0x1 ADD SWAP1 PUSH1 0x20 ADD DUP1 DUP4 GT PUSH2 0x65A JUMPI DUP3 SWAP1 SUB PUSH1 0x1F AND DUP3 ADD SWAP2 JUMPDEST POP POP POP POP POP DUP2 JUMP JUMPDEST PUSH1 0x60 PUSH1 0x9 DUP3 PUSH1 0x40 MLOAD PUSH2 0x691 SWAP2 SWAP1 PUSH2 0x28BF JUMP JUMPDEST SWAP1 DUP2 MSTORE PUSH1 0x20 ADD PUSH1 0x40 MLOAD DUP1 SWAP2 SUB SWAP1 KECCAK256 DUP1 SLOAD DUP1 PUSH1 0x20 MUL PUSH1 0x20 ADD PUSH1 0x40 MLOAD SWAP1 DUP2 ADD PUSH1 0x40 MSTORE DUP1 SWAP3 SWAP2 SWAP1 DUP2 DUP2 MSTORE PUSH1 0x20 ADD PUSH0 SWAP1 JUMPDEST DUP3 DUP3 LT ISZERO PUSH2 0x766 JUMPI DUP4 DUP3 SWAP1 PUSH0 MSTORE PUSH1 0x20 PUSH0 KECCAK256 ADD DUP1 SLOAD PUSH2 0x6DB SWAP1 PUSH2 0x2902 JUMP JUMPDEST DUP1 PUSH1 0x1F ADD PUSH1 0x20 DUP1 SWAP2 DIV MUL PUSH1 0x20 ADD PUSH1 0x40 MLOAD SWAP1 DUP2 ADD PUSH1 0x40 MSTORE DUP1 SWAP3 SWAP2 SWAP1 DUP2 DUP2 MSTORE PUSH1 0x20 ADD DUP3 DUP1 SLOAD PUSH2 0x707 SWAP1 PUSH2 0x2902 JUMP JUMPDEST DUP1 ISZERO PUSH2 0x752 JUMPI DUP1 PUSH1 0x1F LT PUSH2 0x729 JUMPI PUSH2 0x100 DUP1 DUP4 SLOAD DIV MUL DUP4 MSTORE SWAP2 PUSH1 0x20 ADD SWAP2 PUSH2 0x752 JUMP JUMPDEST DUP3 ADD SWAP2 SWAP1 PUSH0 MSTORE PUSH1 0x20 PUSH0 KECCAK256 SWAP1 JUMPDEST DUP2 SLOAD DUP2 MSTORE SWAP1 PUSH1 0x1 ADD SWAP1 PUSH1 0x20 ADD DUP1 DUP4 GT PUSH2 0x735 JUMPI DUP3 SWAP1 SUB PUSH1 0x1F AND DUP3 ADD SWAP2 JUMPDEST POP POP POP POP POP DUP2 MSTORE PUSH1 0x20 ADD SWAP1 PUSH1 0x1 ADD SWAP1 PUSH2 0x6BE JUMP JUMPDEST POP POP POP POP SWAP1 POP SWAP2 SWAP1 POP JUMP JUMPDEST PUSH1 0x60 PUSH1 0x5 DUP3 PUSH1 0x40 MLOAD PUSH2 0x783 SWAP2 SWAP1 PUSH2 0x28BF JUMP JUMPDEST SWAP1 DUP2 MSTORE PUSH1 0x20 ADD PUSH1 0x40 MLOAD DUP1 SWAP2 SUB SWAP1 KECCAK256 DUP1 SLOAD DUP1 PUSH1 0x20 MUL PUSH1 0x20 ADD PUSH1 0x40 MLOAD SWAP1 DUP2 ADD PUSH1 0x40 MSTORE DUP1 SWAP3 SWAP2 SWAP1 DUP2 DUP2 MSTORE PUSH1 0x20 ADD PUSH0 SWAP1 JUMPDEST DUP3 DUP3 LT ISZERO PUSH2 0x858 JUMPI DUP4 DUP3 SWAP1 PUSH0 MSTORE PUSH1 0x20 PUSH0 KECCAK256 ADD DUP1 SLOAD PUSH2 0x7CD SWAP1 PUSH2 0x2902 JUMP JUMPDEST DUP1 PUSH1 0x1F ADD PUSH1 0x20 DUP1 SWAP2 DIV MUL PUSH1 0x20 ADD PUSH1 0x40 MLOAD SWAP1 DUP2 ADD PUSH1 0x40 MSTORE DUP1 SWAP3 SWAP2 SWAP1 DUP2 DUP2 MSTORE PUSH1 0x20 ADD DUP3 DUP1 SLOAD PUSH2 0x7F9 SWAP1 PUSH2 0x2902 JUMP JUMPDEST DUP1 ISZERO PUSH2 0x844 JUMPI DUP1 PUSH1 0x1F LT PUSH2 0x81B JUMPI PUSH2 0x100 DUP1 DUP4 SLOAD DIV MUL DUP4 MSTORE SWAP2 PUSH1 0x20 ADD SWAP2 PUSH2 0x844 JUMP JUMPDEST DUP3 ADD SWAP2 SWAP1 PUSH0 MSTORE PUSH1 0x20 PUSH0 KECCAK256 SWAP1 JUMPDEST DUP2 SLOAD DUP2 MSTORE SWAP1 PUSH1 0x1 ADD SWAP1 PUSH1 0x20 ADD DUP1 DUP4 GT PUSH2 0x827 JUMPI DUP3 SWAP1 SUB PUSH1 0x1F AND DUP3 ADD SWAP2 JUMPDEST POP POP POP POP POP DUP2 MSTORE PUSH1 0x20 ADD SWAP1 PUSH1 0x1 ADD SWAP1 PUSH2 0x7B0 JUMP JUMPDEST POP POP POP POP SWAP1 POP SWAP2 SWAP1 POP JUMP JUMPDEST PUSH2 0x86B PUSH2 0x1DB5 JUMP JUMPDEST DUP12 DUP2 PUSH0 ADD DUP2 SWAP1 MSTORE POP DUP11 DUP2 PUSH1 0x20 ADD DUP2 SWAP1 MSTORE POP DUP10 DUP2 PUSH1 0x40 ADD DUP2 SWAP1 MSTORE POP DUP8 DUP2 PUSH1 0x80 ADD DUP2 SWAP1 MSTORE POP DUP9 DUP2 PUSH1 0x60 ADD DUP2 SWAP1 MSTORE POP DUP7 DUP2 PUSH1 0xA0 ADD DUP2 SWAP1 MSTORE POP DUP3 DUP2 PUSH1 0xC0 ADD DUP2 SWAP1 MSTORE POP DUP4 DUP2 PUSH1 0xE0 ADD DUP2 SWAP1 MSTORE POP DUP2 DUP2 PUSH2 0x100 ADD DUP2 SWAP1 MSTORE POP PUSH1 0xA DUP9 SWAP1 DUP1 PUSH1 0x1 DUP2 SLOAD ADD DUP1 DUP3 SSTORE DUP1 SWAP2 POP POP PUSH1 0x1 SWAP1 SUB SWAP1 PUSH0 MSTORE PUSH1 0x20 PUSH0 KECCAK256 ADD PUSH0 SWAP1 SWAP2 SWAP1 SWAP2 SWAP1 SWAP2 POP SWAP1 DUP2 PUSH2 0x8ED SWAP2 SWAP1 PUSH2 0x2ACF JUMP JUMPDEST POP DUP12 PUSH0 DUP10 PUSH1 0x40 MLOAD PUSH2 0x8FE SWAP2 SWAP1 PUSH2 0x28BF JUMP JUMPDEST SWAP1 DUP2 MSTORE PUSH1 0x20 ADD PUSH1 0x40 MLOAD DUP1 SWAP2 SUB SWAP1 KECCAK256 SWAP1 DUP2 PUSH2 0x918 SWAP2 SWAP1 PUSH2 0x2ACF JUMP JUMPDEST POP DUP1 PUSH1 0x3 DUP10 PUSH1 0x40 MLOAD PUSH2 0x92A SWAP2 SWAP1 PUSH2 0x28BF JUMP JUMPDEST SWAP1 DUP2 MSTORE PUSH1 0x20 ADD PUSH1 0x40 MLOAD DUP1 SWAP2 SUB SWAP1 KECCAK256 PUSH0 DUP3 ADD MLOAD DUP2 PUSH0 ADD SWAP1 DUP2 PUSH2 0x94B SWAP2 SWAP1 PUSH2 0x2ACF JUMP JUMPDEST POP PUSH1 0x20 DUP3 ADD MLOAD DUP2 PUSH1 0x1 ADD SWAP1 DUP2 PUSH2 0x961 SWAP2 SWAP1 PUSH2 0x2ACF JUMP JUMPDEST POP PUSH1 0x40 DUP3 ADD MLOAD DUP2 PUSH1 0x2 ADD SWAP1 DUP2 PUSH2 0x977 SWAP2 SWAP1 PUSH2 0x2ACF JUMP JUMPDEST POP PUSH1 0x60 DUP3 ADD MLOAD DUP2 PUSH1 0x3 ADD SWAP1 DUP2 PUSH2 0x98D SWAP2 SWAP1 PUSH2 0x2ACF JUMP JUMPDEST POP PUSH1 0x80 DUP3 ADD MLOAD DUP2 PUSH1 0x4 ADD SWAP1 DUP2 PUSH2 0x9A3 SWAP2 SWAP1 PUSH2 0x2ACF JUMP JUMPDEST POP PUSH1 0xA0 DUP3 ADD MLOAD DUP2 PUSH1 0x5 ADD SWAP1 DUP2 PUSH2 0x9B9 SWAP2 SWAP1 PUSH2 0x2ACF JUMP JUMPDEST POP PUSH1 0xC0 DUP3 ADD MLOAD DUP2 PUSH1 0x6 ADD SWAP1 DUP2 PUSH2 0x9CF SWAP2 SWAP1 PUSH2 0x2ACF JUMP JUMPDEST POP PUSH1 0xE0 DUP3 ADD MLOAD DUP2 PUSH1 0x7 ADD SWAP1 DUP2 PUSH2 0x9E5 SWAP2 SWAP1 PUSH2 0x2ACF JUMP JUMPDEST POP PUSH2 0x100 DUP3 ADD MLOAD DUP2 PUSH1 0x8 ADD SWAP1 DUP2 PUSH2 0x9FC SWAP2 SWAP1 PUSH2 0x2ACF JUMP JUMPDEST POP SWAP1 POP POP DUP6 PUSH1 0x6 DUP14 PUSH1 0x40 MLOAD PUSH2 0xA11 SWAP2 SWAP1 PUSH2 0x28BF JUMP JUMPDEST SWAP1 DUP2 MSTORE PUSH1 0x20 ADD PUSH1 0x40 MLOAD DUP1 SWAP2 SUB SWAP1 KECCAK256 SWAP1 DUP2 PUSH2 0xA2B SWAP2 SWAP1 PUSH2 0x2ACF JUMP JUMPDEST POP DUP5 PUSH1 0x7 DUP14 PUSH1 0x40 MLOAD PUSH2 0xA3D SWAP2 SWAP1 PUSH2 0x28BF JUMP JUMPDEST SWAP1 DUP2 MSTORE PUSH1 0x20 ADD PUSH1 0x40 MLOAD DUP1 SWAP2 SUB SWAP1 KECCAK256 SWAP1 DUP2 PUSH2 0xA57 SWAP2 SWAP1 PUSH2 0x2ACF JUMP JUMPDEST POP POP POP POP POP POP POP POP POP POP POP POP POP JUMP JUMPDEST PUSH1 0x8 DUP2 DUP1 MLOAD PUSH1 0x20 DUP2 ADD DUP3 ADD DUP1 MLOAD DUP5 DUP3 MSTORE PUSH1 0x20 DUP4 ADD PUSH1 0x20 DUP6 ADD KECCAK256 DUP2 DUP4 MSTORE DUP1 SWAP6 POP POP POP POP POP POP PUSH0 SWAP2 POP SWAP1 POP SLOAD DUP2 JUMP JUMPDEST DUP1 PUSH1 0x8 DUP4 PUSH1 0x40 MLOAD PUSH2 0xAA4 SWAP2 SWAP1 PUSH2 0x28BF JUMP JUMPDEST SWAP1 DUP2 MSTORE PUSH1 0x20 ADD PUSH1 0x40 MLOAD DUP1 SWAP2 SUB SWAP1 KECCAK256 DUP2 SWAP1 SSTORE POP POP POP JUMP JUMPDEST PUSH1 0x1 DUP2 DUP1 MLOAD PUSH1 0x20 DUP2 ADD DUP3 ADD DUP1 MLOAD DUP5 DUP3 MSTORE PUSH1 0x20 DUP4 ADD PUSH1 0x20 DUP6 ADD KECCAK256 DUP2 DUP4 MSTORE DUP1 SWAP6 POP POP POP POP POP POP PUSH0 SWAP2 POP SWAP1 POP SLOAD DUP2 JUMP JUMPDEST PUSH1 0x5 DUP3 DUP1 MLOAD PUSH1 0x20 DUP2 ADD DUP3 ADD DUP1 MLOAD DUP5 DUP3 MSTORE PUSH1 0x20 DUP4 ADD PUSH1 0x20 DUP6 ADD KECCAK256 DUP2 DUP4 MSTORE DUP1 SWAP6 POP POP POP POP POP POP DUP2 DUP2 SLOAD DUP2 LT PUSH2 0xB18 JUMPI PUSH0 DUP1 REVERT JUMPDEST SWAP1 PUSH0 MSTORE PUSH1 0x20 PUSH0 KECCAK256 ADD PUSH0 SWAP2 POP SWAP2 POP POP DUP1 SLOAD PUSH2 0xB31 SWAP1 PUSH2 0x2902 JUMP JUMPDEST DUP1 PUSH1 0x1F ADD PUSH1 0x20 DUP1 SWAP2 DIV MUL PUSH1 0x20 ADD PUSH1 0x40 MLOAD SWAP1 DUP2 ADD PUSH1 0x40 MSTORE DUP1 SWAP3 SWAP2 SWAP1 DUP2 DUP2 MSTORE PUSH1 0x20 ADD DUP3 DUP1 SLOAD PUSH2 0xB5D SWAP1 PUSH2 0x2902 JUMP JUMPDEST DUP1 ISZERO PUSH2 0xBA8 JUMPI DUP1 PUSH1 0x1F LT PUSH2 0xB7F JUMPI PUSH2 0x100 DUP1 DUP4 SLOAD DIV MUL DUP4 MSTORE SWAP2 PUSH1 0x20 ADD SWAP2 PUSH2 0xBA8 JUMP JUMPDEST DUP3 ADD SWAP2 SWAP1 PUSH0 MSTORE PUSH1 0x20 PUSH0 KECCAK256 SWAP1 JUMPDEST DUP2 SLOAD DUP2 MSTORE SWAP1 PUSH1 0x1 ADD SWAP1 PUSH1 0x20 ADD DUP1 DUP4 GT PUSH2 0xB8B JUMPI DUP3 SWAP1 SUB PUSH1 0x1F AND DUP3 ADD SWAP2 JUMPDEST POP POP POP POP POP DUP2 JUMP JUMPDEST PUSH1 0x2 DUP2 DUP1 MLOAD PUSH1 0x20 DUP2 ADD DUP3 ADD DUP1 MLOAD DUP5 DUP3 MSTORE PUSH1 0x20 DUP4 ADD PUSH1 0x20 DUP6 ADD KECCAK256 DUP2 DUP4 MSTORE DUP1 SWAP6 POP POP POP POP POP POP PUSH0 SWAP2 POP SWAP1 POP DUP1 PUSH0 ADD DUP1 SLOAD PUSH2 0xBE7 SWAP1 PUSH2 0x2902 JUMP JUMPDEST DUP1 PUSH1 0x1F ADD PUSH1 0x20 DUP1 SWAP2 DIV MUL PUSH1 0x20 ADD PUSH1 0x40 MLOAD SWAP1 DUP2 ADD PUSH1 0x40 MSTORE DUP1 SWAP3 SWAP2 SWAP1 DUP2 DUP2 MSTORE PUSH1 0x20 ADD DUP3 DUP1 SLOAD PUSH2 0xC13 SWAP1 PUSH2 0x2902 JUMP JUMPDEST DUP1 ISZERO PUSH2 0xC5E JUMPI DUP1 PUSH1 0x1F LT PUSH2 0xC35 JUMPI PUSH2 0x100 DUP1 DUP4 SLOAD DIV MUL DUP4 MSTORE SWAP2 PUSH1 0x20 ADD SWAP2 PUSH2 0xC5E JUMP JUMPDEST DUP3 ADD SWAP2 SWAP1 PUSH0 MSTORE PUSH1 0x20 PUSH0 KECCAK256 SWAP1 JUMPDEST DUP2 SLOAD DUP2 MSTORE SWAP1 PUSH1 0x1 ADD SWAP1 PUSH1 0x20 ADD DUP1 DUP4 GT PUSH2 0xC41 JUMPI DUP3 SWAP1 SUB PUSH1 0x1F AND DUP3 ADD SWAP2 JUMPDEST POP POP POP POP POP SWAP1 DUP1 PUSH1 0x1 ADD DUP1 SLOAD PUSH2 0xC73 SWAP1 PUSH2 0x2902 JUMP JUMPDEST DUP1 PUSH1 0x1F ADD PUSH1 0x20 DUP1 SWAP2 DIV MUL PUSH1 0x20 ADD PUSH1 0x40 MLOAD SWAP1 DUP2 ADD PUSH1 0x40 MSTORE DUP1 SWAP3 SWAP2 SWAP1 DUP2 DUP2 MSTORE PUSH1 0x20 ADD DUP3 DUP1 SLOAD PUSH2 0xC9F SWAP1 PUSH2 0x2902 JUMP JUMPDEST DUP1 ISZERO PUSH2 0xCEA JUMPI DUP1 PUSH1 0x1F LT PUSH2 0xCC1 JUMPI PUSH2 0x100 DUP1 DUP4 SLOAD DIV MUL DUP4 MSTORE SWAP2 PUSH1 0x20 ADD SWAP2 PUSH2 0xCEA JUMP JUMPDEST DUP3 ADD SWAP2 SWAP1 PUSH0 MSTORE PUSH1 0x20 PUSH0 KECCAK256 SWAP1 JUMPDEST DUP2 SLOAD DUP2 MSTORE SWAP1 PUSH1 0x1 ADD SWAP1 PUSH1 0x20 ADD DUP1 DUP4 GT PUSH2 0xCCD JUMPI DUP3 SWAP1 SUB PUSH1 0x1F AND DUP3 ADD SWAP2 JUMPDEST POP POP POP POP POP SWAP1 DUP1 PUSH1 0x2 ADD DUP1 SLOAD PUSH2 0xCFF SWAP1 PUSH2 0x2902 JUMP JUMPDEST DUP1 PUSH1 0x1F ADD PUSH1 0x20 DUP1 SWAP2 DIV MUL PUSH1 0x20 ADD PUSH1 0x40 MLOAD SWAP1 DUP2 ADD PUSH1 0x40 MSTORE DUP1 SWAP3 SWAP2 SWAP1 DUP2 DUP2 MSTORE PUSH1 0x20 ADD DUP3 DUP1 SLOAD PUSH2 0xD2B SWAP1 PUSH2 0x2902 JUMP JUMPDEST DUP1 ISZERO PUSH2 0xD76 JUMPI DUP1 PUSH1 0x1F LT PUSH2 0xD4D JUMPI PUSH2 0x100 DUP1 DUP4 SLOAD DIV MUL DUP4 MSTORE SWAP2 PUSH1 0x20 ADD SWAP2 PUSH2 0xD76 JUMP JUMPDEST DUP3 ADD SWAP2 SWAP1 PUSH0 MSTORE PUSH1 0x20 PUSH0 KECCAK256 SWAP1 JUMPDEST DUP2 SLOAD DUP2 MSTORE SWAP1 PUSH1 0x1 ADD SWAP1 PUSH1 0x20 ADD DUP1 DUP4 GT PUSH2 0xD59 JUMPI DUP3 SWAP1 SUB PUSH1 0x1F AND DUP3 ADD SWAP2 JUMPDEST POP POP POP POP POP SWAP1 DUP1 PUSH1 0x3 ADD DUP1 SLOAD PUSH2 0xD8B SWAP1 PUSH2 0x2902 JUMP JUMPDEST DUP1 PUSH1 0x1F ADD PUSH1 0x20 DUP1 SWAP2 DIV MUL PUSH1 0x20 ADD PUSH1 0x40 MLOAD SWAP1 DUP2 ADD PUSH1 0x40 MSTORE DUP1 SWAP3 SWAP2 SWAP1 DUP2 DUP2 MSTORE PUSH1 0x20 ADD DUP3 DUP1 SLOAD PUSH2 0xDB7 SWAP1 PUSH2 0x2902 JUMP JUMPDEST DUP1 ISZERO PUSH2 0xE02 JUMPI DUP1 PUSH1 0x1F LT PUSH2 0xDD9 JUMPI PUSH2 0x100 DUP1 DUP4 SLOAD DIV MUL DUP4 MSTORE SWAP2 PUSH1 0x20 ADD SWAP2 PUSH2 0xE02 JUMP JUMPDEST DUP3 ADD SWAP2 SWAP1 PUSH0 MSTORE PUSH1 0x20 PUSH0 KECCAK256 SWAP1 JUMPDEST DUP2 SLOAD DUP2 MSTORE SWAP1 PUSH1 0x1 ADD SWAP1 PUSH1 0x20 ADD DUP1 DUP4 GT PUSH2 0xDE5 JUMPI DUP3 SWAP1 SUB PUSH1 0x1F AND DUP3 ADD SWAP2 JUMPDEST POP POP POP POP POP SWAP1 DUP1 PUSH1 0x4 ADD DUP1 SLOAD PUSH2 0xE17 SWAP1 PUSH2 0x2902 JUMP JUMPDEST DUP1 PUSH1 0x1F ADD PUSH1 0x20 DUP1 SWAP2 DIV MUL PUSH1 0x20 ADD PUSH1 0x40 MLOAD SWAP1 DUP2 ADD PUSH1 0x40 MSTORE DUP1 SWAP3 SWAP2 SWAP1 DUP2 DUP2 MSTORE PUSH1 0x20 ADD DUP3 DUP1 SLOAD PUSH2 0xE43 SWAP1 PUSH2 0x2902 JUMP JUMPDEST DUP1 ISZERO PUSH2 0xE8E JUMPI DUP1 PUSH1 0x1F LT PUSH2 0xE65 JUMPI PUSH2 0x100 DUP1 DUP4 SLOAD DIV MUL DUP4 MSTORE SWAP2 PUSH1 0x20 ADD SWAP2 PUSH2 0xE8E JUMP JUMPDEST DUP3 ADD SWAP2 SWAP1 PUSH0 MSTORE PUSH1 0x20 PUSH0 KECCAK256 SWAP1 JUMPDEST DUP2 SLOAD DUP2 MSTORE SWAP1 PUSH1 0x1 ADD SWAP1 PUSH1 0x20 ADD DUP1 DUP4 GT PUSH2 0xE71 JUMPI DUP3 SWAP1 SUB PUSH1 0x1F AND DUP3 ADD SWAP2 JUMPDEST POP POP POP POP POP SWAP1 DUP1 PUSH1 0x5 ADD DUP1 SLOAD PUSH2 0xEA3 SWAP1 PUSH2 0x2902 JUMP JUMPDEST DUP1 PUSH1 0x1F ADD PUSH1 0x20 DUP1 SWAP2 DIV MUL PUSH1 0x20 ADD PUSH1 0x40 MLOAD SWAP1 DUP2 ADD PUSH1 0x40 MSTORE DUP1 SWAP3 SWAP2 SWAP1 DUP2 DUP2 MSTORE PUSH1 0x20 ADD DUP3 DUP1 SLOAD PUSH2 0xECF SWAP1 PUSH2 0x2902 JUMP JUMPDEST DUP1 ISZERO PUSH2 0xF1A JUMPI DUP1 PUSH1 0x1F LT PUSH2 0xEF1 JUMPI PUSH2 0x100 DUP1 DUP4 SLOAD DIV MUL DUP4 MSTORE SWAP2 PUSH1 0x20 ADD SWAP2 PUSH2 0xF1A JUMP JUMPDEST DUP3 ADD SWAP2 SWAP1 PUSH0 MSTORE PUSH1 0x20 PUSH0 KECCAK256 SWAP1 JUMPDEST DUP2 SLOAD DUP2 MSTORE SWAP1 PUSH1 0x1 ADD SWAP1 PUSH1 0x20 ADD DUP1 DUP4 GT PUSH2 0xEFD JUMPI DUP3 SWAP1 SUB PUSH1 0x1F AND DUP3 ADD SWAP2 JUMPDEST POP POP POP POP POP SWAP1 DUP1 PUSH1 0x6 ADD DUP1 SLOAD PUSH2 0xF2F SWAP1 PUSH2 0x2902 JUMP JUMPDEST DUP1 PUSH1 0x1F ADD PUSH1 0x20 DUP1 SWAP2 DIV MUL PUSH1 0x20 ADD PUSH1 0x40 MLOAD SWAP1 DUP2 ADD PUSH1 0x40 MSTORE DUP1 SWAP3 SWAP2 SWAP1 DUP2 DUP2 MSTORE PUSH1 0x20 ADD DUP3 DUP1 SLOAD PUSH2 0xF5B SWAP1 PUSH2 0x2902 JUMP JUMPDEST DUP1 ISZERO PUSH2 0xFA6 JUMPI DUP1 PUSH1 0x1F LT PUSH2 0xF7D JUMPI PUSH2 0x100 DUP1 DUP4 SLOAD DIV MUL DUP4 MSTORE SWAP2 PUSH1 0x20 ADD SWAP2 PUSH2 0xFA6 JUMP JUMPDEST DUP3 ADD SWAP2 SWAP1 PUSH0 MSTORE PUSH1 0x20 PUSH0 KECCAK256 SWAP1 JUMPDEST DUP2 SLOAD DUP2 MSTORE SWAP1 PUSH1 0x1 ADD SWAP1 PUSH1 0x20 ADD DUP1 DUP4 GT PUSH2 0xF89 JUMPI DUP3 SWAP1 SUB PUSH1 0x1F AND DUP3 ADD SWAP2 JUMPDEST POP POP POP POP POP SWAP1 DUP1 PUSH1 0x7 ADD DUP1 SLOAD PUSH2 0xFBB SWAP1 PUSH2 0x2902 JUMP JUMPDEST DUP1 PUSH1 0x1F ADD PUSH1 0x20 DUP1 SWAP2 DIV MUL PUSH1 0x20 ADD PUSH1 0x40 MLOAD SWAP1 DUP2 ADD PUSH1 0x40 MSTORE DUP1 SWAP3 SWAP2 SWAP1 DUP2 DUP2 MSTORE PUSH1 0x20 ADD DUP3 DUP1 SLOAD PUSH2 0xFE7 SWAP1 PUSH2 0x2902 JUMP JUMPDEST DUP1 ISZERO PUSH2 0x1032 JUMPI DUP1 PUSH1 0x1F LT PUSH2 0x1009 JUMPI PUSH2 0x100 DUP1 DUP4 SLOAD DIV MUL DUP4 MSTORE SWAP2 PUSH1 0x20 ADD SWAP2 PUSH2 0x1032 JUMP JUMPDEST DUP3 ADD SWAP2 SWAP1 PUSH0 MSTORE PUSH1 0x20 PUSH0 KECCAK256 SWAP1 JUMPDEST DUP2 SLOAD DUP2 MSTORE SWAP1 PUSH1 0x1 ADD SWAP1 PUSH1 0x20 ADD DUP1 DUP4 GT PUSH2 0x1015 JUMPI DUP3 SWAP1 SUB PUSH1 0x1F AND DUP3 ADD SWAP2 JUMPDEST POP POP POP POP POP SWAP1 DUP1 PUSH1 0x8 ADD DUP1 SLOAD PUSH2 0x1047 SWAP1 PUSH2 0x2902 JUMP JUMPDEST DUP1 PUSH1 0x1F ADD PUSH1 0x20 DUP1 SWAP2 DIV MUL PUSH1 0x20 ADD PUSH1 0x40 MLOAD SWAP1 DUP2 ADD PUSH1 0x40 MSTORE DUP1 SWAP3 SWAP2 SWAP1 DUP2 DUP2 MSTORE PUSH1 0x20 ADD DUP3 DUP1 SLOAD PUSH2 0x1073 SWAP1 PUSH2 0x2902 JUMP JUMPDEST DUP1 ISZERO PUSH2 0x10BE JUMPI DUP1 PUSH1 0x1F LT PUSH2 0x1095 JUMPI PUSH2 0x100 DUP1 DUP4 SLOAD DIV MUL DUP4 MSTORE SWAP2 PUSH1 0x20 ADD SWAP2 PUSH2 0x10BE JUMP JUMPDEST DUP3 ADD SWAP2 SWAP1 PUSH0 MSTORE PUSH1 0x20 PUSH0 KECCAK256 SWAP1 JUMPDEST DUP2 SLOAD DUP2 MSTORE SWAP1 PUSH1 0x1 ADD SWAP1 PUSH1 0x20 ADD DUP1 DUP4 GT PUSH2 0x10A1 JUMPI DUP3 SWAP1 SUB PUSH1 0x1F AND DUP3 ADD SWAP2 JUMPDEST POP POP POP POP POP SWAP1 DUP1 PUSH1 0x9 ADD DUP1 SLOAD PUSH2 0x10D3 SWAP1 PUSH2 0x2902 JUMP JUMPDEST DUP1 PUSH1 0x1F ADD PUSH1 0x20 DUP1 SWAP2 DIV MUL PUSH1 0x20 ADD PUSH1 0x40 MLOAD SWAP1 DUP2 ADD PUSH1 0x40 MSTORE DUP1 SWAP3 SWAP2 SWAP1 DUP2 DUP2 MSTORE PUSH1 0x20 ADD DUP3 DUP1 SLOAD PUSH2 0x10FF SWAP1 PUSH2 0x2902 JUMP JUMPDEST DUP1 ISZERO PUSH2 0x114A JUMPI DUP1 PUSH1 0x1F LT PUSH2 0x1121 JUMPI PUSH2 0x100 DUP1 DUP4 SLOAD DIV MUL DUP4 MSTORE SWAP2 PUSH1 0x20 ADD SWAP2 PUSH2 0x114A JUMP JUMPDEST DUP3 ADD SWAP2 SWAP1 PUSH0 MSTORE PUSH1 0x20 PUSH0 KECCAK256 SWAP1 JUMPDEST DUP2 SLOAD DUP2 MSTORE SWAP1 PUSH1 0x1 ADD SWAP1 PUSH1 0x20 ADD DUP1 DUP4 GT PUSH2 0x112D JUMPI DUP3 SWAP1 SUB PUSH1 0x1F AND DUP3 ADD SWAP2 JUMPDEST POP POP POP POP POP SWAP1 DUP1 PUSH1 0xA ADD DUP1 SLOAD PUSH2 0x115F SWAP1 PUSH2 0x2902 JUMP JUMPDEST DUP1 PUSH1 0x1F ADD PUSH1 0x20 DUP1 SWAP2 DIV MUL PUSH1 0x20 ADD PUSH1 0x40 MLOAD SWAP1 DUP2 ADD PUSH1 0x40 MSTORE DUP1 SWAP3 SWAP2 SWAP1 DUP2 DUP2 MSTORE PUSH1 0x20 ADD DUP3 DUP1 SLOAD PUSH2 0x118B SWAP1 PUSH2 0x2902 JUMP JUMPDEST DUP1 ISZERO PUSH2 0x11D6 JUMPI DUP1 PUSH1 0x1F LT PUSH2 0x11AD JUMPI PUSH2 0x100 DUP1 DUP4 SLOAD DIV MUL DUP4 MSTORE SWAP2 PUSH1 0x20 ADD SWAP2 PUSH2 0x11D6 JUMP JUMPDEST DUP3 ADD SWAP2 SWAP1 PUSH0 MSTORE PUSH1 0x20 PUSH0 KECCAK256 SWAP1 JUMPDEST DUP2 SLOAD DUP2 MSTORE SWAP1 PUSH1 0x1 ADD SWAP1 PUSH1 0x20 ADD DUP1 DUP4 GT PUSH2 0x11B9 JUMPI DUP3 SWAP1 SUB PUSH1 0x1F AND DUP3 ADD SWAP2 JUMPDEST POP POP POP POP POP SWAP1 POP DUP12 JUMP JUMPDEST PUSH0 PUSH1 0x1 DUP3 PUSH1 0x40 MLOAD PUSH2 0x11F1 SWAP2 SWAP1 PUSH2 0x28BF JUMP JUMPDEST SWAP1 DUP2 MSTORE PUSH1 0x20 ADD PUSH1 0x40 MLOAD DUP1 SWAP2 SUB SWAP1 KECCAK256 SLOAD SWAP1 POP SWAP2 SWAP1 POP JUMP JUMPDEST PUSH1 0x6 DUP2 DUP1 MLOAD PUSH1 0x20 DUP2 ADD DUP3 ADD DUP1 MLOAD DUP5 DUP3 MSTORE PUSH1 0x20 DUP4 ADD PUSH1 0x20 DUP6 ADD KECCAK256 DUP2 DUP4 MSTORE DUP1 SWAP6 POP POP POP POP POP POP PUSH0 SWAP2 POP SWAP1 POP DUP1 SLOAD PUSH2 0x123B SWAP1 PUSH2 0x2902 JUMP JUMPDEST DUP1 PUSH1 0x1F ADD PUSH1 0x20 DUP1 SWAP2 DIV MUL PUSH1 0x20 ADD PUSH1 0x40 MLOAD SWAP1 DUP2 ADD PUSH1 0x40 MSTORE DUP1 SWAP3 SWAP2 SWAP1 DUP2 DUP2 MSTORE PUSH1 0x20 ADD DUP3 DUP1 SLOAD PUSH2 0x1267 SWAP1 PUSH2 0x2902 JUMP JUMPDEST DUP1 ISZERO PUSH2 0x12B2 JUMPI DUP1 PUSH1 0x1F LT PUSH2 0x1289 JUMPI PUSH2 0x100 DUP1 DUP4 SLOAD DIV MUL DUP4 MSTORE SWAP2 PUSH1 0x20 ADD SWAP2 PUSH2 0x12B2 JUMP JUMPDEST DUP3 ADD SWAP2 SWAP1 PUSH0 MSTORE PUSH1 0x20 PUSH0 KECCAK256 SWAP1 JUMPDEST DUP2 SLOAD DUP2 MSTORE SWAP1 PUSH1 0x1 ADD SWAP1 PUSH1 0x20 ADD DUP1 DUP4 GT PUSH2 0x1295 JUMPI DUP3 SWAP1 SUB PUSH1 0x1F AND DUP3 ADD SWAP2 JUMPDEST POP POP POP POP POP DUP2 JUMP JUMPDEST PUSH2 0x12C2 PUSH2 0x1E01 JUMP JUMPDEST DUP12 DUP2 PUSH0 ADD DUP2 SWAP1 MSTORE POP DUP11 DUP2 PUSH1 0x20 ADD DUP2 SWAP1 MSTORE POP DUP10 DUP2 PUSH1 0x40 ADD DUP2 SWAP1 MSTORE POP DUP9 DUP2 PUSH1 0x60 ADD DUP2 SWAP1 MSTORE POP DUP8 DUP2 PUSH1 0x80 ADD DUP2 SWAP1 MSTORE POP DUP7 DUP2 PUSH1 0xA0 ADD DUP2 SWAP1 MSTORE POP DUP6 DUP2 PUSH1 0xC0 ADD DUP2 SWAP1 MSTORE POP DUP5 DUP2 PUSH1 0xE0 ADD DUP2 SWAP1 MSTORE POP DUP4 DUP2 PUSH2 0x100 ADD DUP2 SWAP1 MSTORE POP DUP3 DUP2 PUSH2 0x120 ADD DUP2 SWAP1 MSTORE POP DUP2 DUP2 PUSH2 0x140 ADD DUP2 SWAP1 MSTORE POP PUSH1 0x1 DUP1 DUP9 PUSH1 0x40 MLOAD PUSH2 0x1338 SWAP2 SWAP1 PUSH2 0x28BF JUMP JUMPDEST SWAP1 DUP2 MSTORE PUSH1 0x20 ADD PUSH1 0x40 MLOAD DUP1 SWAP2 SUB SWAP1 KECCAK256 DUP2 SWAP1 SSTORE POP DUP1 PUSH1 0x2 DUP9 PUSH1 0x40 MLOAD PUSH2 0x135B SWAP2 SWAP1 PUSH2 0x28BF JUMP JUMPDEST SWAP1 DUP2 MSTORE PUSH1 0x20 ADD PUSH1 0x40 MLOAD DUP1 SWAP2 SUB SWAP1 KECCAK256 PUSH0 DUP3 ADD MLOAD DUP2 PUSH0 ADD SWAP1 DUP2 PUSH2 0x137C SWAP2 SWAP1 PUSH2 0x2ACF JUMP JUMPDEST POP PUSH1 0x20 DUP3 ADD MLOAD DUP2 PUSH1 0x1 ADD SWAP1 DUP2 PUSH2 0x1392 SWAP2 SWAP1 PUSH2 0x2ACF JUMP JUMPDEST POP PUSH1 0x40 DUP3 ADD MLOAD DUP2 PUSH1 0x2 ADD SWAP1 DUP2 PUSH2 0x13A8 SWAP2 SWAP1 PUSH2 0x2ACF JUMP JUMPDEST POP PUSH1 0x60 DUP3 ADD MLOAD DUP2 PUSH1 0x3 ADD SWAP1 DUP2 PUSH2 0x13BE SWAP2 SWAP1 PUSH2 0x2ACF JUMP JUMPDEST POP PUSH1 0x80 DUP3 ADD MLOAD DUP2 PUSH1 0x4 ADD SWAP1 DUP2 PUSH2 0x13D4 SWAP2 SWAP1 PUSH2 0x2ACF JUMP JUMPDEST POP PUSH1 0xA0 DUP3 ADD MLOAD DUP2 PUSH1 0x5 ADD SWAP1 DUP2 PUSH2 0x13EA SWAP2 SWAP1 PUSH2 0x2ACF JUMP JUMPDEST POP PUSH1 0xC0 DUP3 ADD MLOAD DUP2 PUSH1 0x6 ADD SWAP1 DUP2 PUSH2 0x1400 SWAP2 SWAP1 PUSH2 0x2ACF JUMP JUMPDEST POP PUSH1 0xE0 DUP3 ADD MLOAD DUP2 PUSH1 0x7 ADD SWAP1 DUP2 PUSH2 0x1416 SWAP2 SWAP1 PUSH2 0x2ACF JUMP JUMPDEST POP PUSH2 0x100 DUP3 ADD MLOAD DUP2 PUSH1 0x8 ADD SWAP1 DUP2 PUSH2 0x142D SWAP2 SWAP1 PUSH2 0x2ACF JUMP JUMPDEST POP PUSH2 0x120 DUP3 ADD MLOAD DUP2 PUSH1 0x9 ADD SWAP1 DUP2 PUSH2 0x1444 SWAP2 SWAP1 PUSH2 0x2ACF JUMP JUMPDEST POP PUSH2 0x140 DUP3 ADD MLOAD DUP2 PUSH1 0xA ADD SWAP1 DUP2 PUSH2 0x145B SWAP2 SWAP1 PUSH2 0x2ACF JUMP JUMPDEST POP SWAP1 POP POP POP POP POP POP POP POP POP POP POP POP POP POP JUMP JUMPDEST PUSH1 0x4 DUP7 PUSH1 0x40 MLOAD PUSH2 0x147D SWAP2 SWAP1 PUSH2 0x28BF JUMP JUMPDEST SWAP1 DUP2 MSTORE PUSH1 0x20 ADD PUSH1 0x40 MLOAD DUP1 SWAP2 SUB SWAP1 KECCAK256 DUP6 SWAP1 DUP1 PUSH1 0x1 DUP2 SLOAD ADD DUP1 DUP3 SSTORE DUP1 SWAP2 POP POP PUSH1 0x1 SWAP1 SUB SWAP1 PUSH0 MSTORE PUSH1 0x20 PUSH0 KECCAK256 ADD PUSH0 SWAP1 SWAP2 SWAP1 SWAP2 SWAP1 SWAP2 POP SWAP1 DUP2 PUSH2 0x14BA SWAP2 SWAP1 PUSH2 0x2ACF JUMP JUMPDEST POP PUSH1 0x5 DUP4 PUSH1 0x40 MLOAD PUSH2 0x14CB SWAP2 SWAP1 PUSH2 0x28BF JUMP JUMPDEST SWAP1 DUP2 MSTORE PUSH1 0x20 ADD PUSH1 0x40 MLOAD DUP1 SWAP2 SUB SWAP1 KECCAK256 DUP5 SWAP1 DUP1 PUSH1 0x1 DUP2 SLOAD ADD DUP1 DUP3 SSTORE DUP1 SWAP2 POP POP PUSH1 0x1 SWAP1 SUB SWAP1 PUSH0 MSTORE PUSH1 0x20 PUSH0 KECCAK256 ADD PUSH0 SWAP1 SWAP2 SWAP1 SWAP2 SWAP1 SWAP2 POP SWAP1 DUP2 PUSH2 0x1508 SWAP2 SWAP1 PUSH2 0x2ACF JUMP JUMPDEST POP PUSH1 0x9 DUP7 PUSH1 0x40 MLOAD PUSH2 0x1519 SWAP2 SWAP1 PUSH2 0x28BF JUMP JUMPDEST SWAP1 DUP2 MSTORE PUSH1 0x20 ADD PUSH1 0x40 MLOAD DUP1 SWAP2 SUB SWAP1 KECCAK256 DUP3 SWAP1 DUP1 PUSH1 0x1 DUP2 SLOAD ADD DUP1 DUP3 SSTORE DUP1 SWAP2 POP POP PUSH1 0x1 SWAP1 SUB SWAP1 PUSH0 MSTORE PUSH1 0x20 PUSH0 KECCAK256 ADD PUSH0 SWAP1 SWAP2 SWAP1 SWAP2 SWAP1 SWAP2 POP SWAP1 DUP2 PUSH2 0x1556 SWAP2 SWAP1 PUSH2 0x2ACF JUMP JUMPDEST POP DUP1 PUSH1 0x8 DUP4 PUSH1 0x40 MLOAD PUSH2 0x1568 SWAP2 SWAP1 PUSH2 0x28BF JUMP JUMPDEST SWAP1 DUP2 MSTORE PUSH1 0x20 ADD PUSH1 0x40 MLOAD DUP1 SWAP2 SUB SWAP1 KECCAK256 DUP2 SWAP1 SSTORE POP POP POP POP POP POP POP JUMP JUMPDEST PUSH1 0xA DUP2 DUP2 SLOAD DUP2 LT PUSH2 0x1591 JUMPI PUSH0 DUP1 REVERT JUMPDEST SWAP1 PUSH0 MSTORE PUSH1 0x20 PUSH0 KECCAK256 ADD PUSH0 SWAP2 POP SWAP1 POP DUP1 SLOAD PUSH2 0x15A9 SWAP1 PUSH2 0x2902 JUMP JUMPDEST DUP1 PUSH1 0x1F ADD PUSH1 0x20 DUP1 SWAP2 DIV MUL PUSH1 0x20 ADD PUSH1 0x40 MLOAD SWAP1 DUP2 ADD PUSH1 0x40 MSTORE DUP1 SWAP3 SWAP2 SWAP1 DUP2 DUP2 MSTORE PUSH1 0x20 ADD DUP3 DUP1 SLOAD PUSH2 0x15D5 SWAP1 PUSH2 0x2902 JUMP JUMPDEST DUP1 ISZERO PUSH2 0x1620 JUMPI DUP1 PUSH1 0x1F LT PUSH2 0x15F7 JUMPI PUSH2 0x100 DUP1 DUP4 SLOAD DIV MUL DUP4 MSTORE SWAP2 PUSH1 0x20 ADD SWAP2 PUSH2 0x1620 JUMP JUMPDEST DUP3 ADD SWAP2 SWAP1 PUSH0 MSTORE PUSH1 0x20 PUSH0 KECCAK256 SWAP1 JUMPDEST DUP2 SLOAD DUP2 MSTORE SWAP1 PUSH1 0x1 ADD SWAP1 PUSH1 0x20 ADD DUP1 DUP4 GT PUSH2 0x1603 JUMPI DUP3 SWAP1 SUB PUSH1 0x1F AND DUP3 ADD SWAP2 JUMPDEST POP POP POP POP POP DUP2 JUMP JUMPDEST PUSH1 0x4 DUP3 DUP1 MLOAD PUSH1 0x20 DUP2 ADD DUP3 ADD DUP1 MLOAD DUP5 DUP3 MSTORE PUSH1 0x20 DUP4 ADD PUSH1 0x20 DUP6 ADD KECCAK256 DUP2 DUP4 MSTORE DUP1 SWAP6 POP POP POP POP POP POP DUP2 DUP2 SLOAD DUP2 LT PUSH2 0x1659 JUMPI PUSH0 DUP1 REVERT JUMPDEST SWAP1 PUSH0 MSTORE PUSH1 0x20 PUSH0 KECCAK256 ADD PUSH0 SWAP2 POP SWAP2 POP POP DUP1 SLOAD PUSH2 0x1672 SWAP1 PUSH2 0x2902 JUMP JUMPDEST DUP1 PUSH1 0x1F ADD PUSH1 0x20 DUP1 SWAP2 DIV MUL PUSH1 0x20 ADD PUSH1 0x40 MLOAD SWAP1 DUP2 ADD PUSH1 0x40 MSTORE DUP1 SWAP3 SWAP2 SWAP1 DUP2 DUP2 MSTORE PUSH1 0x20 ADD DUP3 DUP1 SLOAD PUSH2 0x169E SWAP1 PUSH2 0x2902 JUMP JUMPDEST DUP1 ISZERO PUSH2 0x16E9 JUMPI DUP1 PUSH1 0x1F LT PUSH2 0x16C0 JUMPI PUSH2 0x100 DUP1 DUP4 SLOAD DIV MUL DUP4 MSTORE SWAP2 PUSH1 0x20 ADD SWAP2 PUSH2 0x16E9 JUMP JUMPDEST DUP3 ADD SWAP2 SWAP1 PUSH0 MSTORE PUSH1 0x20 PUSH0 KECCAK256 SWAP1 JUMPDEST DUP2 SLOAD DUP2 MSTORE SWAP1 PUSH1 0x1 ADD SWAP1 PUSH1 0x20 ADD DUP1 DUP4 GT PUSH2 0x16CC JUMPI DUP3 SWAP1 SUB PUSH1 0x1F AND DUP3 ADD SWAP2 JUMPDEST POP POP POP POP POP DUP2 JUMP JUMPDEST PUSH1 0x3 DUP2 DUP1 MLOAD PUSH1 0x20 DUP2 ADD DUP3 ADD DUP1 MLOAD DUP5 DUP3 MSTORE PUSH1 0x20 DUP4 ADD PUSH1 0x20 DUP6 ADD KECCAK256 DUP2 DUP4 MSTORE DUP1 SWAP6 POP POP POP POP POP POP PUSH0 SWAP2 POP SWAP1 POP DUP1 PUSH0 ADD DUP1 SLOAD PUSH2 0x1728 SWAP1 PUSH2 0x2902 JUMP JUMPDEST DUP1 PUSH1 0x1F ADD PUSH1 0x20 DUP1 SWAP2 DIV MUL PUSH1 0x20 ADD PUSH1 0x40 MLOAD SWAP1 DUP2 ADD PUSH1 0x40 MSTORE DUP1 SWAP3 SWAP2 SWAP1 DUP2 DUP2 MSTORE PUSH1 0x20 ADD DUP3 DUP1 SLOAD PUSH2 0x1754 SWAP1 PUSH2 0x2902 JUMP JUMPDEST DUP1 ISZERO PUSH2 0x179F JUMPI DUP1 PUSH1 0x1F LT PUSH2 0x1776 JUMPI PUSH2 0x100 DUP1 DUP4 SLOAD DIV MUL DUP4 MSTORE SWAP2 PUSH1 0x20 ADD SWAP2 PUSH2 0x179F JUMP JUMPDEST DUP3 ADD SWAP2 SWAP1 PUSH0 MSTORE PUSH1 0x20 PUSH0 KECCAK256 SWAP1 JUMPDEST DUP2 SLOAD DUP2 MSTORE SWAP1 PUSH1 0x1 ADD SWAP1 PUSH1 0x20 ADD DUP1 DUP4 GT PUSH2 0x1782 JUMPI DUP3 SWAP1 SUB PUSH1 0x1F AND DUP3 ADD SWAP2 JUMPDEST POP POP POP POP POP SWAP1 DUP1 PUSH1 0x1 ADD DUP1 SLOAD PUSH2 0x17B4 SWAP1 PUSH2 0x2902 JUMP JUMPDEST DUP1 PUSH1 0x1F ADD PUSH1 0x20 DUP1 SWAP2 DIV MUL PUSH1 0x20 ADD PUSH1 0x40 MLOAD SWAP1 DUP2 ADD PUSH1 0x40 MSTORE DUP1 SWAP3 SWAP2 SWAP1 DUP2 DUP2 MSTORE PUSH1 0x20 ADD DUP3 DUP1 SLOAD PUSH2 0x17E0 SWAP1 PUSH2 0x2902 JUMP JUMPDEST DUP1 ISZERO PUSH2 0x182B JUMPI DUP1 PUSH1 0x1F LT PUSH2 0x1802 JUMPI PUSH2 0x100 DUP1 DUP4 SLOAD DIV MUL DUP4 MSTORE SWAP2 PUSH1 0x20 ADD SWAP2 PUSH2 0x182B JUMP JUMPDEST DUP3 ADD SWAP2 SWAP1 PUSH0 MSTORE PUSH1 0x20 PUSH0 KECCAK256 SWAP1 JUMPDEST DUP2 SLOAD DUP2 MSTORE SWAP1 PUSH1 0x1 ADD SWAP1 PUSH1 0x20 ADD DUP1 DUP4 GT PUSH2 0x180E JUMPI DUP3 SWAP1 SUB PUSH1 0x1F AND DUP3 ADD SWAP2 JUMPDEST POP POP POP POP POP SWAP1 DUP1 PUSH1 0x2 ADD DUP1 SLOAD PUSH2 0x1840 SWAP1 PUSH2 0x2902 JUMP JUMPDEST DUP1 PUSH1 0x1F ADD PUSH1 0x20 DUP1 SWAP2 DIV MUL PUSH1 0x20 ADD PUSH1 0x40 MLOAD SWAP1 DUP2 ADD PUSH1 0x40 MSTORE DUP1 SWAP3 SWAP2 SWAP1 DUP2 DUP2 MSTORE PUSH1 0x20 ADD DUP3 DUP1 SLOAD PUSH2 0x186C SWAP1 PUSH2 0x2902 JUMP JUMPDEST DUP1 ISZERO PUSH2 0x18B7 JUMPI DUP1 PUSH1 0x1F LT PUSH2 0x188E JUMPI PUSH2 0x100 DUP1 DUP4 SLOAD DIV MUL DUP4 MSTORE SWAP2 PUSH1 0x20 ADD SWAP2 PUSH2 0x18B7 JUMP JUMPDEST DUP3 ADD SWAP2 SWAP1 PUSH0 MSTORE PUSH1 0x20 PUSH0 KECCAK256 SWAP1 JUMPDEST DUP2 SLOAD DUP2 MSTORE SWAP1 PUSH1 0x1 ADD SWAP1 PUSH1 0x20 ADD DUP1 DUP4 GT PUSH2 0x189A JUMPI DUP3 SWAP1 SUB PUSH1 0x1F AND DUP3 ADD SWAP2 JUMPDEST POP POP POP POP POP SWAP1 DUP1 PUSH1 0x3 ADD DUP1 SLOAD PUSH2 0x18CC SWAP1 PUSH2 0x2902 JUMP JUMPDEST DUP1 PUSH1 0x1F ADD PUSH1 0x20 DUP1 SWAP2 DIV MUL PUSH1 0x20 ADD PUSH1 0x40 MLOAD SWAP1 DUP2 ADD PUSH1 0x40 MSTORE DUP1 SWAP3 SWAP2 SWAP1 DUP2 DUP2 MSTORE PUSH1 0x20 ADD DUP3 DUP1 SLOAD PUSH2 0x18F8 SWAP1 PUSH2 0x2902 JUMP JUMPDEST DUP1 ISZERO PUSH2 0x1943 JUMPI DUP1 PUSH1 0x1F LT PUSH2 0x191A JUMPI PUSH2 0x100 DUP1 DUP4 SLOAD DIV MUL DUP4 MSTORE SWAP2 PUSH1 0x20 ADD SWAP2 PUSH2 0x1943 JUMP JUMPDEST DUP3 ADD SWAP2 SWAP1 PUSH0 MSTORE PUSH1 0x20 PUSH0 KECCAK256 SWAP1 JUMPDEST DUP2 SLOAD DUP2 MSTORE SWAP1 PUSH1 0x1 ADD SWAP1 PUSH1 0x20 ADD DUP1 DUP4 GT PUSH2 0x1926 JUMPI DUP3 SWAP1 SUB PUSH1 0x1F AND DUP3 ADD SWAP2 JUMPDEST POP POP POP POP POP SWAP1 DUP1 PUSH1 0x4 ADD DUP1 SLOAD PUSH2 0x1958 SWAP1 PUSH2 0x2902 JUMP JUMPDEST DUP1 PUSH1 0x1F ADD PUSH1 0x20 DUP1 SWAP2 DIV MUL PUSH1 0x20 ADD PUSH1 0x40 MLOAD SWAP1 DUP2 ADD PUSH1 0x40 MSTORE DUP1 SWAP3 SWAP2 SWAP1 DUP2 DUP2 MSTORE PUSH1 0x20 ADD DUP3 DUP1 SLOAD PUSH2 0x1984 SWAP1 PUSH2 0x2902 JUMP JUMPDEST DUP1 ISZERO PUSH2 0x19CF JUMPI DUP1 PUSH1 0x1F LT PUSH2 0x19A6 JUMPI PUSH2 0x100 DUP1 DUP4 SLOAD DIV MUL DUP4 MSTORE SWAP2 PUSH1 0x20 ADD SWAP2 PUSH2 0x19CF JUMP JUMPDEST DUP3 ADD SWAP2 SWAP1 PUSH0 MSTORE PUSH1 0x20 PUSH0 KECCAK256 SWAP1 JUMPDEST DUP2 SLOAD DUP2 MSTORE SWAP1 PUSH1 0x1 ADD SWAP1 PUSH1 0x20 ADD DUP1 DUP4 GT PUSH2 0x19B2 JUMPI DUP3 SWAP1 SUB PUSH1 0x1F AND DUP3 ADD SWAP2 JUMPDEST POP POP POP POP POP SWAP1 DUP1 PUSH1 0x5 ADD DUP1 SLOAD PUSH2 0x19E4 SWAP1 PUSH2 0x2902 JUMP JUMPDEST DUP1 PUSH1 0x1F ADD PUSH1 0x20 DUP1 SWAP2 DIV MUL PUSH1 0x20 ADD PUSH1 0x40 MLOAD SWAP1 DUP2 ADD PUSH1 0x40 MSTORE DUP1 SWAP3 SWAP2 SWAP1 DUP2 DUP2 MSTORE PUSH1 0x20 ADD DUP3 DUP1 SLOAD PUSH2 0x1A10 SWAP1 PUSH2 0x2902 JUMP JUMPDEST DUP1 ISZERO PUSH2 0x1A5B JUMPI DUP1 PUSH1 0x1F LT PUSH2 0x1A32 JUMPI PUSH2 0x100 DUP1 DUP4 SLOAD DIV MUL DUP4 MSTORE SWAP2 PUSH1 0x20 ADD SWAP2 PUSH2 0x1A5B JUMP JUMPDEST DUP3 ADD SWAP2 SWAP1 PUSH0 MSTORE PUSH1 0x20 PUSH0 KECCAK256 SWAP1 JUMPDEST DUP2 SLOAD DUP2 MSTORE SWAP1 PUSH1 0x1 ADD SWAP1 PUSH1 0x20 ADD DUP1 DUP4 GT PUSH2 0x1A3E JUMPI DUP3 SWAP1 SUB PUSH1 0x1F AND DUP3 ADD SWAP2 JUMPDEST POP POP POP POP POP SWAP1 DUP1 PUSH1 0x6 ADD DUP1 SLOAD PUSH2 0x1A70 SWAP1 PUSH2 0x2902 JUMP JUMPDEST DUP1 PUSH1 0x1F ADD PUSH1 0x20 DUP1 SWAP2 DIV MUL PUSH1 0x20 ADD PUSH1 0x40 MLOAD SWAP1 DUP2 ADD PUSH1 0x40 MSTORE DUP1 SWAP3 SWAP2 SWAP1 DUP2 DUP2 MSTORE PUSH1 0x20 ADD DUP3 DUP1 SLOAD PUSH2 0x1A9C SWAP1 PUSH2 0x2902 JUMP JUMPDEST DUP1 ISZERO PUSH2 0x1AE7 JUMPI DUP1 PUSH1 0x1F LT PUSH2 0x1ABE JUMPI PUSH2 0x100 DUP1 DUP4 SLOAD DIV MUL DUP4 MSTORE SWAP2 PUSH1 0x20 ADD SWAP2 PUSH2 0x1AE7 JUMP JUMPDEST DUP3 ADD SWAP2 SWAP1 PUSH0 MSTORE PUSH1 0x20 PUSH0 KECCAK256 SWAP1 JUMPDEST DUP2 SLOAD DUP2 MSTORE SWAP1 PUSH1 0x1 ADD SWAP1 PUSH1 0x20 ADD DUP1 DUP4 GT PUSH2 0x1ACA JUMPI DUP3 SWAP1 SUB PUSH1 0x1F AND DUP3 ADD SWAP2 JUMPDEST POP POP POP POP POP SWAP1 DUP1 PUSH1 0x7 ADD DUP1 SLOAD PUSH2 0x1AFC SWAP1 PUSH2 0x2902 JUMP JUMPDEST DUP1 PUSH1 0x1F ADD PUSH1 0x20 DUP1 SWAP2 DIV MUL PUSH1 0x20 ADD PUSH1 0x40 MLOAD SWAP1 DUP2 ADD PUSH1 0x40 MSTORE DUP1 SWAP3 SWAP2 SWAP1 DUP2 DUP2 MSTORE PUSH1 0x20 ADD DUP3 DUP1 SLOAD PUSH2 0x1B28 SWAP1 PUSH2 0x2902 JUMP JUMPDEST DUP1 ISZERO PUSH2 0x1B73 JUMPI DUP1 PUSH1 0x1F LT PUSH2 0x1B4A JUMPI PUSH2 0x100 DUP1 DUP4 SLOAD DIV MUL DUP4 MSTORE SWAP2 PUSH1 0x20 ADD SWAP2 PUSH2 0x1B73 JUMP JUMPDEST DUP3 ADD SWAP2 SWAP1 PUSH0 MSTORE PUSH1 0x20 PUSH0 KECCAK256 SWAP1 JUMPDEST DUP2 SLOAD DUP2 MSTORE SWAP1 PUSH1 0x1 ADD SWAP1 PUSH1 0x20 ADD DUP1 DUP4 GT PUSH2 0x1B56 JUMPI DUP3 SWAP1 SUB PUSH1 0x1F AND DUP3 ADD SWAP2 JUMPDEST POP POP POP POP POP SWAP1 DUP1 PUSH1 0x8 ADD DUP1 SLOAD PUSH2 0x1B88 SWAP1 PUSH2 0x2902 JUMP JUMPDEST DUP1 PUSH1 0x1F ADD PUSH1 0x20 DUP1 SWAP2 DIV MUL PUSH1 0x20 ADD PUSH1 0x40 MLOAD SWAP1 DUP2 ADD PUSH1 0x40 MSTORE DUP1 SWAP3 SWAP2 SWAP1 DUP2 DUP2 MSTORE PUSH1 0x20 ADD DUP3 DUP1 SLOAD PUSH2 0x1BB4 SWAP1 PUSH2 0x2902 JUMP JUMPDEST DUP1 ISZERO PUSH2 0x1BFF JUMPI DUP1 PUSH1 0x1F LT PUSH2 0x1BD6 JUMPI PUSH2 0x100 DUP1 DUP4 SLOAD DIV MUL DUP4 MSTORE SWAP2 PUSH1 0x20 ADD SWAP2 PUSH2 0x1BFF JUMP JUMPDEST DUP3 ADD SWAP2 SWAP1 PUSH0 MSTORE PUSH1 0x20 PUSH0 KECCAK256 SWAP1 JUMPDEST DUP2 SLOAD DUP2 MSTORE SWAP1 PUSH1 0x1 ADD SWAP1 PUSH1 0x20 ADD DUP1 DUP4 GT PUSH2 0x1BE2 JUMPI DUP3 SWAP1 SUB PUSH1 0x1F AND DUP3 ADD SWAP2 JUMPDEST POP POP POP POP POP SWAP1 POP DUP10 JUMP JUMPDEST PUSH0 DUP2 DUP1 MLOAD PUSH1 0x20 DUP2 ADD DUP3 ADD DUP1 MLOAD DUP5 DUP3 MSTORE PUSH1 0x20 DUP4 ADD PUSH1 0x20 DUP6 ADD KECCAK256 DUP2 DUP4 MSTORE DUP1 SWAP6 POP POP POP POP POP POP PUSH0 SWAP2 POP SWAP1 POP DUP1 SLOAD PUSH2 0x1C3C SWAP1 PUSH2 0x2902 JUMP JUMPDEST DUP1 PUSH1 0x1F ADD PUSH1 0x20 DUP1 SWAP2 DIV MUL PUSH1 0x20 ADD PUSH1 0x40 MLOAD SWAP1 DUP2 ADD PUSH1 0x40 MSTORE DUP1 SWAP3 SWAP2 SWAP1 DUP2 DUP2 MSTORE PUSH1 0x20 ADD DUP3 DUP1 SLOAD PUSH2 0x1C68 SWAP1 PUSH2 0x2902 JUMP JUMPDEST DUP1 ISZERO PUSH2 0x1CB3 JUMPI DUP1 PUSH1 0x1F LT PUSH2 0x1C8A JUMPI PUSH2 0x100 DUP1 DUP4 SLOAD DIV MUL DUP4 MSTORE SWAP2 PUSH1 0x20 ADD SWAP2 PUSH2 0x1CB3 JUMP JUMPDEST DUP3 ADD SWAP2 SWAP1 PUSH0 MSTORE PUSH1 0x20 PUSH0 KECCAK256 SWAP1 JUMPDEST DUP2 SLOAD DUP2 MSTORE SWAP1 PUSH1 0x1 ADD SWAP1 PUSH1 0x20 ADD DUP1 DUP4 GT PUSH2 0x1C96 JUMPI DUP3 SWAP1 SUB PUSH1 0x1F AND DUP3 ADD SWAP2 JUMPDEST POP POP POP POP POP DUP2 JUMP JUMPDEST PUSH0 PUSH1 0x1 DUP3 PUSH1 0x40 MLOAD PUSH2 0x1CCC SWAP2 SWAP1 PUSH2 0x28BF JUMP JUMPDEST SWAP1 DUP2 MSTORE PUSH1 0x20 ADD PUSH1 0x40 MLOAD DUP1 SWAP2 SUB SWAP1 KECCAK256 DUP2 SWAP1 SSTORE POP POP JUMP JUMPDEST PUSH1 0x60 PUSH1 0xA DUP1 SLOAD DUP1 PUSH1 0x20 MUL PUSH1 0x20 ADD PUSH1 0x40 MLOAD SWAP1 DUP2 ADD PUSH1 0x40 MSTORE DUP1 SWAP3 SWAP2 SWAP1 DUP2 DUP2 MSTORE PUSH1 0x20 ADD PUSH0 SWAP1 JUMPDEST DUP3 DUP3 LT ISZERO PUSH2 0x1DAC JUMPI DUP4 DUP3 SWAP1 PUSH0 MSTORE PUSH1 0x20 PUSH0 KECCAK256 ADD DUP1 SLOAD PUSH2 0x1D21 SWAP1 PUSH2 0x2902 JUMP JUMPDEST DUP1 PUSH1 0x1F ADD PUSH1 0x20 DUP1 SWAP2 DIV MUL PUSH1 0x20 ADD PUSH1 0x40 MLOAD SWAP1 DUP2 ADD PUSH1 0x40 MSTORE DUP1 SWAP3 SWAP2 SWAP1 DUP2 DUP2 MSTORE PUSH1 0x20 ADD DUP3 DUP1 SLOAD PUSH2 0x1D4D SWAP1 PUSH2 0x2902 JUMP JUMPDEST DUP1 ISZERO PUSH2 0x1D98 JUMPI DUP1 PUSH1 0x1F LT PUSH2 0x1D6F JUMPI PUSH2 0x100 DUP1 DUP4 SLOAD DIV MUL DUP4 MSTORE SWAP2 PUSH1 0x20 ADD SWAP2 PUSH2 0x1D98 JUMP JUMPDEST DUP3 ADD SWAP2 SWAP1 PUSH0 MSTORE PUSH1 0x20 PUSH0 KECCAK256 SWAP1 JUMPDEST DUP2 SLOAD DUP2 MSTORE SWAP1 PUSH1 0x1 ADD SWAP1 PUSH1 0x20 ADD DUP1 DUP4 GT PUSH2 0x1D7B JUMPI DUP3 SWAP1 SUB PUSH1 0x1F AND DUP3 ADD SWAP2 JUMPDEST POP POP POP POP POP DUP2 MSTORE PUSH1 0x20 ADD SWAP1 PUSH1 0x1 ADD SWAP1 PUSH2 0x1D04 JUMP JUMPDEST POP POP POP POP SWAP1 POP SWAP1 JUMP JUMPDEST PUSH1 0x40 MLOAD DUP1 PUSH2 0x120 ADD PUSH1 0x40 MSTORE DUP1 PUSH1 0x60 DUP2 MSTORE PUSH1 0x20 ADD PUSH1 0x60 DUP2 MSTORE PUSH1 0x20 ADD PUSH1 0x60 DUP2 MSTORE PUSH1 0x20 ADD PUSH1 0x60 DUP2 MSTORE PUSH1 0x20 ADD PUSH1 0x60 DUP2 MSTORE PUSH1 0x20 ADD PUSH1 0x60 DUP2 MSTORE PUSH1 0x20 ADD PUSH1 0x60 DUP2 MSTORE PUSH1 0x20 ADD PUSH1 0x60 DUP2 MSTORE PUSH1 0x20 ADD PUSH1 0x60 DUP2 MSTORE POP SWAP1 JUMP JUMPDEST PUSH1 0x40 MLOAD DUP1 PUSH2 0x160 ADD PUSH1 0x40 MSTORE DUP1 PUSH1 0x60 DUP2 MSTORE PUSH1 0x20 ADD PUSH1 0x60 DUP2 MSTORE PUSH1 0x20 ADD PUSH1 0x60 DUP2 MSTORE PUSH1 0x20 ADD PUSH1 0x60 DUP2 MSTORE PUSH1 0x20 ADD PUSH1 0x60 DUP2 MSTORE PUSH1 0x20 ADD PUSH1 0x60 DUP2 MSTORE PUSH1 0x20 ADD PUSH1 0x60 DUP2 MSTORE PUSH1 0x20 ADD PUSH1 0x60 DUP2 MSTORE PUSH1 0x20 ADD PUSH1 0x60 DUP2 MSTORE PUSH1 0x20 ADD PUSH1 0x60 DUP2 MSTORE PUSH1 0x20 ADD PUSH1 0x60 DUP2 MSTORE POP SWAP1 JUMP JUMPDEST PUSH0 PUSH1 0x40 MLOAD SWAP1 POP SWAP1 JUMP JUMPDEST PUSH0 DUP1 REVERT JUMPDEST PUSH0 DUP1 REVERT JUMPDEST PUSH0 DUP1 REVERT JUMPDEST PUSH0 DUP1 REVERT JUMPDEST PUSH0 PUSH1 0x1F NOT PUSH1 0x1F DUP4 ADD AND SWAP1 POP SWAP2 SWAP1 POP JUMP JUMPDEST PUSH32 0x4E487B7100000000000000000000000000000000000000000000000000000000 PUSH0 MSTORE PUSH1 0x41 PUSH1 0x4 MSTORE PUSH1 0x24 PUSH0 REVERT JUMPDEST PUSH2 0x1EBA DUP3 PUSH2 0x1E74 JUMP JUMPDEST DUP2 ADD DUP2 DUP2 LT PUSH8 0xFFFFFFFFFFFFFFFF DUP3 GT OR ISZERO PUSH2 0x1ED9 JUMPI PUSH2 0x1ED8 PUSH2 0x1E84 JUMP JUMPDEST JUMPDEST DUP1 PUSH1 0x40 MSTORE POP POP POP JUMP JUMPDEST PUSH0 PUSH2 0x1EEB PUSH2 0x1E5B JUMP JUMPDEST SWAP1 POP PUSH2 0x1EF7 DUP3 DUP3 PUSH2 0x1EB1 JUMP JUMPDEST SWAP2 SWAP1 POP JUMP JUMPDEST PUSH0 PUSH8 0xFFFFFFFFFFFFFFFF DUP3 GT ISZERO PUSH2 0x1F16 JUMPI PUSH2 0x1F15 PUSH2 0x1E84 JUMP JUMPDEST JUMPDEST PUSH2 0x1F1F DUP3 PUSH2 0x1E74 JUMP JUMPDEST SWAP1 POP PUSH1 0x20 DUP2 ADD SWAP1 POP SWAP2 SWAP1 POP JUMP JUMPDEST DUP3 DUP2 DUP4 CALLDATACOPY PUSH0 DUP4 DUP4 ADD MSTORE POP POP POP JUMP JUMPDEST PUSH0 PUSH2 0x1F4C PUSH2 0x1F47 DUP5 PUSH2 0x1EFC JUMP JUMPDEST PUSH2 0x1EE2 JUMP JUMPDEST SWAP1 POP DUP3 DUP2 MSTORE PUSH1 0x20 DUP2 ADD DUP5 DUP5 DUP5 ADD GT ISZERO PUSH2 0x1F68 JUMPI PUSH2 0x1F67 PUSH2 0x1E70 JUMP JUMPDEST JUMPDEST PUSH2 0x1F73 DUP5 DUP3 DUP6 PUSH2 0x1F2C JUMP JUMPDEST POP SWAP4 SWAP3 POP POP POP JUMP JUMPDEST PUSH0 DUP3 PUSH1 0x1F DUP4 ADD SLT PUSH2 0x1F8F JUMPI PUSH2 0x1F8E PUSH2 0x1E6C JUMP JUMPDEST JUMPDEST DUP2 CALLDATALOAD PUSH2 0x1F9F DUP5 DUP3 PUSH1 0x20 DUP7 ADD PUSH2 0x1F3A JUMP JUMPDEST SWAP2 POP POP SWAP3 SWAP2 POP POP JUMP JUMPDEST PUSH0 DUP1 PUSH1 0x40 DUP4 DUP6 SUB SLT ISZERO PUSH2 0x1FBE JUMPI PUSH2 0x1FBD PUSH2 0x1E64 JUMP JUMPDEST JUMPDEST PUSH0 DUP4 ADD CALLDATALOAD PUSH8 0xFFFFFFFFFFFFFFFF DUP2 GT ISZERO PUSH2 0x1FDB JUMPI PUSH2 0x1FDA PUSH2 0x1E68 JUMP JUMPDEST JUMPDEST PUSH2 0x1FE7 DUP6 DUP3 DUP7 ADD PUSH2 0x1F7B JUMP JUMPDEST SWAP3 POP POP PUSH1 0x20 DUP4 ADD CALLDATALOAD PUSH8 0xFFFFFFFFFFFFFFFF DUP2 GT ISZERO PUSH2 0x2008 JUMPI PUSH2 0x2007 PUSH2 0x1E68 JUMP JUMPDEST JUMPDEST PUSH2 0x2014 DUP6 DUP3 DUP7 ADD PUSH2 0x1F7B JUMP JUMPDEST SWAP2 POP POP SWAP3 POP SWAP3 SWAP1 POP JUMP JUMPDEST PUSH0 PUSH1 0x20 DUP3 DUP5 SUB SLT ISZERO PUSH2 0x2033 JUMPI PUSH2 0x2032 PUSH2 0x1E64 JUMP JUMPDEST JUMPDEST PUSH0 DUP3 ADD CALLDATALOAD PUSH8 0xFFFFFFFFFFFFFFFF DUP2 GT ISZERO PUSH2 0x2050 JUMPI PUSH2 0x204F PUSH2 0x1E68 JUMP JUMPDEST JUMPDEST PUSH2 0x205C DUP5 DUP3 DUP6 ADD PUSH2 0x1F7B JUMP JUMPDEST SWAP2 POP POP SWAP3 SWAP2 POP POP JUMP JUMPDEST PUSH0 DUP2 MLOAD SWAP1 POP SWAP2 SWAP1 POP JUMP JUMPDEST PUSH0 DUP3 DUP3 MSTORE PUSH1 0x20 DUP3 ADD SWAP1 POP SWAP3 SWAP2 POP POP JUMP JUMPDEST PUSH0 JUMPDEST DUP4 DUP2 LT ISZERO PUSH2 0x209C JUMPI DUP1 DUP3 ADD MLOAD DUP2 DUP5 ADD MSTORE PUSH1 0x20 DUP2 ADD SWAP1 POP PUSH2 0x2081 JUMP JUMPDEST PUSH0 DUP5 DUP5 ADD MSTORE POP POP POP POP JUMP JUMPDEST PUSH0 PUSH2 0x20B1 DUP3 PUSH2 0x2065 JUMP JUMPDEST PUSH2 0x20BB DUP2 DUP6 PUSH2 0x206F JUMP JUMPDEST SWAP4 POP PUSH2 0x20CB DUP2 DUP6 PUSH1 0x20 DUP7 ADD PUSH2 0x207F JUMP JUMPDEST PUSH2 0x20D4 DUP2 PUSH2 0x1E74 JUMP JUMPDEST DUP5 ADD SWAP2 POP POP SWAP3 SWAP2 POP POP JUMP JUMPDEST PUSH0 PUSH1 0x20 DUP3 ADD SWAP1 POP DUP2 DUP2 SUB PUSH0 DUP4 ADD MSTORE PUSH2 0x20F7 DUP2 DUP5 PUSH2 0x20A7 JUMP JUMPDEST SWAP1 POP SWAP3 SWAP2 POP POP JUMP JUMPDEST PUSH0 DUP2 SWAP1 POP SWAP2 SWAP1 POP JUMP JUMPDEST PUSH2 0x2111 DUP2 PUSH2 0x20FF JUMP JUMPDEST DUP2 EQ PUSH2 0x211B JUMPI PUSH0 DUP1 REVERT JUMPDEST POP JUMP JUMPDEST PUSH0 DUP2 CALLDATALOAD SWAP1 POP PUSH2 0x212C DUP2 PUSH2 0x2108 JUMP JUMPDEST SWAP3 SWAP2 POP POP JUMP JUMPDEST PUSH0 DUP1 PUSH1 0x40 DUP4 DUP6 SUB SLT ISZERO PUSH2 0x2148 JUMPI PUSH2 0x2147 PUSH2 0x1E64 JUMP JUMPDEST JUMPDEST PUSH0 DUP4 ADD CALLDATALOAD PUSH8 0xFFFFFFFFFFFFFFFF DUP2 GT ISZERO PUSH2 0x2165 JUMPI PUSH2 0x2164 PUSH2 0x1E68 JUMP JUMPDEST JUMPDEST PUSH2 0x2171 DUP6 DUP3 DUP7 ADD PUSH2 0x1F7B JUMP JUMPDEST SWAP3 POP POP PUSH1 0x20 PUSH2 0x2182 DUP6 DUP3 DUP7 ADD PUSH2 0x211E JUMP JUMPDEST SWAP2 POP POP SWAP3 POP SWAP3 SWAP1 POP JUMP JUMPDEST PUSH0 DUP2 MLOAD SWAP1 POP SWAP2 SWAP1 POP JUMP JUMPDEST PUSH0 DUP3 DUP3 MSTORE PUSH1 0x20 DUP3 ADD SWAP1 POP SWAP3 SWAP2 POP POP JUMP JUMPDEST PUSH0 DUP2 SWAP1 POP PUSH1 0x20 DUP3 ADD SWAP1 POP SWAP2 SWAP1 POP JUMP JUMPDEST PUSH0 DUP3 DUP3 MSTORE PUSH1 0x20 DUP3 ADD SWAP1 POP SWAP3 SWAP2 POP POP JUMP JUMPDEST PUSH0 PUSH2 0x21CF DUP3 PUSH2 0x2065 JUMP JUMPDEST PUSH2 0x21D9 DUP2 DUP6 PUSH2 0x21B5 JUMP JUMPDEST SWAP4 POP PUSH2 0x21E9 DUP2 DUP6 PUSH1 0x20 DUP7 ADD PUSH2 0x207F JUMP JUMPDEST PUSH2 0x21F2 DUP2 PUSH2 0x1E74 JUMP JUMPDEST DUP5 ADD SWAP2 POP POP SWAP3 SWAP2 POP POP JUMP JUMPDEST PUSH0 PUSH2 0x2208 DUP4 DUP4 PUSH2 0x21C5 JUMP JUMPDEST SWAP1 POP SWAP3 SWAP2 POP POP JUMP JUMPDEST PUSH0 PUSH1 0x20 DUP3 ADD SWAP1 POP SWAP2 SWAP1 POP JUMP JUMPDEST PUSH0 PUSH2 0x2226 DUP3 PUSH2 0x218C JUMP JUMPDEST PUSH2 0x2230 DUP2 DUP6 PUSH2 0x2196 JUMP JUMPDEST SWAP4 POP DUP4 PUSH1 0x20 DUP3 MUL DUP6 ADD PUSH2 0x2242 DUP6 PUSH2 0x21A6 JUMP JUMPDEST DUP1 PUSH0 JUMPDEST DUP6 DUP2 LT ISZERO PUSH2 0x227D JUMPI DUP5 DUP5 SUB DUP10 MSTORE DUP2 MLOAD PUSH2 0x225E DUP6 DUP3 PUSH2 0x21FD JUMP JUMPDEST SWAP5 POP PUSH2 0x2269 DUP4 PUSH2 0x2210 JUMP JUMPDEST SWAP3 POP PUSH1 0x20 DUP11 ADD SWAP10 POP POP PUSH1 0x1 DUP2 ADD SWAP1 POP PUSH2 0x2245 JUMP JUMPDEST POP DUP3 SWAP8 POP DUP8 SWAP6 POP POP POP POP POP POP SWAP3 SWAP2 POP POP JUMP JUMPDEST PUSH0 PUSH1 0x20 DUP3 ADD SWAP1 POP DUP2 DUP2 SUB PUSH0 DUP4 ADD MSTORE PUSH2 0x22A7 DUP2 DUP5 PUSH2 0x221C JUMP JUMPDEST SWAP1 POP SWAP3 SWAP2 POP POP JUMP JUMPDEST PUSH0 DUP1 PUSH0 DUP1 PUSH0 DUP1 PUSH0 DUP1 PUSH0 DUP1 PUSH0 PUSH2 0x160 DUP13 DUP15 SUB SLT ISZERO PUSH2 0x22CF JUMPI PUSH2 0x22CE PUSH2 0x1E64 JUMP JUMPDEST JUMPDEST PUSH0 DUP13 ADD CALLDATALOAD PUSH8 0xFFFFFFFFFFFFFFFF DUP2 GT ISZERO PUSH2 0x22EC JUMPI PUSH2 0x22EB PUSH2 0x1E68 JUMP JUMPDEST JUMPDEST PUSH2 0x22F8 DUP15 DUP3 DUP16 ADD PUSH2 0x1F7B JUMP JUMPDEST SWAP12 POP POP PUSH1 0x20 DUP13 ADD CALLDATALOAD PUSH8 0xFFFFFFFFFFFFFFFF DUP2 GT ISZERO PUSH2 0x2319 JUMPI PUSH2 0x2318 PUSH2 0x1E68 JUMP JUMPDEST JUMPDEST PUSH2 0x2325 DUP15 DUP3 DUP16 ADD PUSH2 0x1F7B JUMP JUMPDEST SWAP11 POP POP PUSH1 0x40 DUP13 ADD CALLDATALOAD PUSH8 0xFFFFFFFFFFFFFFFF DUP2 GT ISZERO PUSH2 0x2346 JUMPI PUSH2 0x2345 PUSH2 0x1E68 JUMP JUMPDEST JUMPDEST PUSH2 0x2352 DUP15 DUP3 DUP16 ADD PUSH2 0x1F7B JUMP JUMPDEST SWAP10 POP POP PUSH1 0x60 DUP13 ADD CALLDATALOAD PUSH8 0xFFFFFFFFFFFFFFFF DUP2 GT ISZERO PUSH2 0x2373 JUMPI PUSH2 0x2372 PUSH2 0x1E68 JUMP JUMPDEST JUMPDEST PUSH2 0x237F DUP15 DUP3 DUP16 ADD PUSH2 0x1F7B JUMP JUMPDEST SWAP9 POP POP PUSH1 0x80 DUP13 ADD CALLDATALOAD PUSH8 0xFFFFFFFFFFFFFFFF DUP2 GT ISZERO PUSH2 0x23A0 JUMPI PUSH2 0x239F PUSH2 0x1E68 JUMP JUMPDEST JUMPDEST PUSH2 0x23AC DUP15 DUP3 DUP16 ADD PUSH2 0x1F7B JUMP JUMPDEST SWAP8 POP POP PUSH1 0xA0 DUP13 ADD CALLDATALOAD PUSH8 0xFFFFFFFFFFFFFFFF DUP2 GT ISZERO PUSH2 0x23CD JUMPI PUSH2 0x23CC PUSH2 0x1E68 JUMP JUMPDEST JUMPDEST PUSH2 0x23D9 DUP15 DUP3 DUP16 ADD PUSH2 0x1F7B JUMP JUMPDEST SWAP7 POP POP PUSH1 0xC0 DUP13 ADD CALLDATALOAD PUSH8 0xFFFFFFFFFFFFFFFF DUP2 GT ISZERO PUSH2 0x23FA JUMPI PUSH2 0x23F9 PUSH2 0x1E68 JUMP JUMPDEST JUMPDEST PUSH2 0x2406 DUP15 DUP3 DUP16 ADD PUSH2 0x1F7B JUMP JUMPDEST SWAP6 POP POP PUSH1 0xE0 DUP13 ADD CALLDATALOAD PUSH8 0xFFFFFFFFFFFFFFFF DUP2 GT ISZERO PUSH2 0x2427 JUMPI PUSH2 0x2426 PUSH2 0x1E68 JUMP JUMPDEST JUMPDEST PUSH2 0x2433 DUP15 DUP3 DUP16 ADD PUSH2 0x1F7B JUMP JUMPDEST SWAP5 POP POP PUSH2 0x100 DUP13 ADD CALLDATALOAD PUSH8 0xFFFFFFFFFFFFFFFF DUP2 GT ISZERO PUSH2 0x2455 JUMPI PUSH2 0x2454 PUSH2 0x1E68 JUMP JUMPDEST JUMPDEST PUSH2 0x2461 DUP15 DUP3 DUP16 ADD PUSH2 0x1F7B JUMP JUMPDEST SWAP4 POP POP PUSH2 0x120 DUP13 ADD CALLDATALOAD PUSH8 0xFFFFFFFFFFFFFFFF DUP2 GT ISZERO PUSH2 0x2483 JUMPI PUSH2 0x2482 PUSH2 0x1E68 JUMP JUMPDEST JUMPDEST PUSH2 0x248F DUP15 DUP3 DUP16 ADD PUSH2 0x1F7B JUMP JUMPDEST SWAP3 POP POP PUSH2 0x140 DUP13 ADD CALLDATALOAD PUSH8 0xFFFFFFFFFFFFFFFF DUP2 GT ISZERO PUSH2 0x24B1 JUMPI PUSH2 0x24B0 PUSH2 0x1E68 JUMP JUMPDEST JUMPDEST PUSH2 0x24BD DUP15 DUP3 DUP16 ADD PUSH2 0x1F7B JUMP JUMPDEST SWAP2 POP POP SWAP3 SWAP6 SWAP9 SWAP12 POP SWAP3 SWAP6 SWAP9 SWAP12 SWAP1 SWAP4 SWAP7 SWAP10 POP JUMP JUMPDEST PUSH0 DUP2 SWAP1 POP SWAP2 SWAP1 POP JUMP JUMPDEST PUSH2 0x24E2 DUP2 PUSH2 0x24D0 JUMP JUMPDEST DUP3 MSTORE POP POP JUMP JUMPDEST PUSH0 PUSH1 0x20 DUP3 ADD SWAP1 POP PUSH2 0x24FB PUSH0 DUP4 ADD DUP5 PUSH2 0x24D9 JUMP JUMPDEST SWAP3 SWAP2 POP POP JUMP JUMPDEST PUSH2 0x250A DUP2 PUSH2 0x24D0 JUMP JUMPDEST DUP2 EQ PUSH2 0x2514 JUMPI PUSH0 DUP1 REVERT JUMPDEST POP JUMP JUMPDEST PUSH0 DUP2 CALLDATALOAD SWAP1 POP PUSH2 0x2525 DUP2 PUSH2 0x2501 JUMP JUMPDEST SWAP3 SWAP2 POP POP JUMP JUMPDEST PUSH0 DUP1 PUSH1 0x40 DUP4 DUP6 SUB SLT ISZERO PUSH2 0x2541 JUMPI PUSH2 0x2540 PUSH2 0x1E64 JUMP JUMPDEST JUMPDEST PUSH0 DUP4 ADD CALLDATALOAD PUSH8 0xFFFFFFFFFFFFFFFF DUP2 GT ISZERO PUSH2 0x255E JUMPI PUSH2 0x255D PUSH2 0x1E68 JUMP JUMPDEST JUMPDEST PUSH2 0x256A DUP6 DUP3 DUP7 ADD PUSH2 0x1F7B JUMP JUMPDEST SWAP3 POP POP PUSH1 0x20 PUSH2 0x257B DUP6 DUP3 DUP7 ADD PUSH2 0x2517 JUMP JUMPDEST SWAP2 POP POP SWAP3 POP SWAP3 SWAP1 POP JUMP JUMPDEST PUSH0 PUSH2 0x160 DUP3 ADD SWAP1 POP DUP2 DUP2 SUB PUSH0 DUP4 ADD MSTORE PUSH2 0x259E DUP2 DUP15 PUSH2 0x20A7 JUMP JUMPDEST SWAP1 POP DUP2 DUP2 SUB PUSH1 0x20 DUP4 ADD MSTORE PUSH2 0x25B2 DUP2 DUP14 PUSH2 0x20A7 JUMP JUMPDEST SWAP1 POP DUP2 DUP2 SUB PUSH1 0x40 DUP4 ADD MSTORE PUSH2 0x25C6 DUP2 DUP13 PUSH2 0x20A7 JUMP JUMPDEST SWAP1 POP DUP2 DUP2 SUB PUSH1 0x60 DUP4 ADD MSTORE PUSH2 0x25DA DUP2 DUP12 PUSH2 0x20A7 JUMP JUMPDEST SWAP1 POP DUP2 DUP2 SUB PUSH1 0x80 DUP4 ADD MSTORE PUSH2 0x25EE DUP2 DUP11 PUSH2 0x20A7 JUMP JUMPDEST SWAP1 POP DUP2 DUP2 SUB PUSH1 0xA0 DUP4 ADD MSTORE PUSH2 0x2602 DUP2 DUP10 PUSH2 0x20A7 JUMP JUMPDEST SWAP1 POP DUP2 DUP2 SUB PUSH1 0xC0 DUP4 ADD MSTORE PUSH2 0x2616 DUP2 DUP9 PUSH2 0x20A7 JUMP JUMPDEST SWAP1 POP DUP2 DUP2 SUB PUSH1 0xE0 DUP4 ADD MSTORE PUSH2 0x262A DUP2 DUP8 PUSH2 0x20A7 JUMP JUMPDEST SWAP1 POP DUP2 DUP2 SUB PUSH2 0x100 DUP4 ADD MSTORE PUSH2 0x263F DUP2 DUP7 PUSH2 0x20A7 JUMP JUMPDEST SWAP1 POP DUP2 DUP2 SUB PUSH2 0x120 DUP4 ADD MSTORE PUSH2 0x2654 DUP2 DUP6 PUSH2 0x20A7 JUMP JUMPDEST SWAP1 POP DUP2 DUP2 SUB PUSH2 0x140 DUP4 ADD MSTORE PUSH2 0x2669 DUP2 DUP5 PUSH2 0x20A7 JUMP JUMPDEST SWAP1 POP SWAP13 SWAP12 POP POP POP POP POP POP POP POP POP POP POP POP JUMP JUMPDEST PUSH0 DUP1 PUSH0 DUP1 PUSH0 DUP1 PUSH1 0xC0 DUP8 DUP10 SUB SLT ISZERO PUSH2 0x2695 JUMPI PUSH2 0x2694 PUSH2 0x1E64 JUMP JUMPDEST JUMPDEST PUSH0 DUP8 ADD CALLDATALOAD PUSH8 0xFFFFFFFFFFFFFFFF DUP2 GT ISZERO PUSH2 0x26B2 JUMPI PUSH2 0x26B1 PUSH2 0x1E68 JUMP JUMPDEST JUMPDEST PUSH2 0x26BE DUP10 DUP3 DUP11 ADD PUSH2 0x1F7B JUMP JUMPDEST SWAP7 POP POP PUSH1 0x20 DUP8 ADD CALLDATALOAD PUSH8 0xFFFFFFFFFFFFFFFF DUP2 GT ISZERO PUSH2 0x26DF JUMPI PUSH2 0x26DE PUSH2 0x1E68 JUMP JUMPDEST JUMPDEST PUSH2 0x26EB DUP10 DUP3 DUP11 ADD PUSH2 0x1F7B JUMP JUMPDEST SWAP6 POP POP PUSH1 0x40 DUP8 ADD CALLDATALOAD PUSH8 0xFFFFFFFFFFFFFFFF DUP2 GT ISZERO PUSH2 0x270C JUMPI PUSH2 0x270B PUSH2 0x1E68 JUMP JUMPDEST JUMPDEST PUSH2 0x2718 DUP10 DUP3 DUP11 ADD PUSH2 0x1F7B JUMP JUMPDEST SWAP5 POP POP PUSH1 0x60 DUP8 ADD CALLDATALOAD PUSH8 0xFFFFFFFFFFFFFFFF DUP2 GT ISZERO PUSH2 0x2739 JUMPI PUSH2 0x2738 PUSH2 0x1E68 JUMP JUMPDEST JUMPDEST PUSH2 0x2745 DUP10 DUP3 DUP11 ADD PUSH2 0x1F7B JUMP JUMPDEST SWAP4 POP POP PUSH1 0x80 DUP8 ADD CALLDATALOAD PUSH8 0xFFFFFFFFFFFFFFFF DUP2 GT ISZERO PUSH2 0x2766 JUMPI PUSH2 0x2765 PUSH2 0x1E68 JUMP JUMPDEST JUMPDEST PUSH2 0x2772 DUP10 DUP3 DUP11 ADD PUSH2 0x1F7B JUMP JUMPDEST SWAP3 POP POP PUSH1 0xA0 PUSH2 0x2783 DUP10 DUP3 DUP11 ADD PUSH2 0x2517 JUMP JUMPDEST SWAP2 POP POP SWAP3 SWAP6 POP SWAP3 SWAP6 POP SWAP3 SWAP6 JUMP JUMPDEST PUSH0 PUSH1 0x20 DUP3 DUP5 SUB SLT ISZERO PUSH2 0x27A5 JUMPI PUSH2 0x27A4 PUSH2 0x1E64 JUMP JUMPDEST JUMPDEST PUSH0 PUSH2 0x27B2 DUP5 DUP3 DUP6 ADD PUSH2 0x211E JUMP JUMPDEST SWAP2 POP POP SWAP3 SWAP2 POP POP JUMP JUMPDEST PUSH0 PUSH2 0x120 DUP3 ADD SWAP1 POP DUP2 DUP2 SUB PUSH0 DUP4 ADD MSTORE PUSH2 0x27D4 DUP2 DUP13 PUSH2 0x20A7 JUMP JUMPDEST SWAP1 POP DUP2 DUP2 SUB PUSH1 0x20 DUP4 ADD MSTORE PUSH2 0x27E8 DUP2 DUP12 PUSH2 0x20A7 JUMP JUMPDEST SWAP1 POP DUP2 DUP2 SUB PUSH1 0x40 DUP4 ADD MSTORE PUSH2 0x27FC DUP2 DUP11 PUSH2 0x20A7 JUMP JUMPDEST SWAP1 POP DUP2 DUP2 SUB PUSH1 0x60 DUP4 ADD MSTORE PUSH2 0x2810 DUP2 DUP10 PUSH2 0x20A7 JUMP JUMPDEST SWAP1 POP DUP2 DUP2 SUB PUSH1 0x80 DUP4 ADD MSTORE PUSH2 0x2824 DUP2 DUP9 PUSH2 0x20A7 JUMP JUMPDEST SWAP1 POP DUP2 DUP2 SUB PUSH1 0xA0 DUP4 ADD MSTORE PUSH2 0x2838 DUP2 DUP8 PUSH2 0x20A7 JUMP JUMPDEST SWAP1 POP DUP2 DUP2 SUB PUSH1 0xC0 DUP4 ADD MSTORE PUSH2 0x284C DUP2 DUP7 PUSH2 0x20A7 JUMP JUMPDEST SWAP1 POP DUP2 DUP2 SUB PUSH1 0xE0 DUP4 ADD MSTORE PUSH2 0x2860 DUP2 DUP6 PUSH2 0x20A7 JUMP JUMPDEST SWAP1 POP DUP2 DUP2 SUB PUSH2 0x100 DUP4 ADD MSTORE PUSH2 0x2875 DUP2 DUP5 PUSH2 0x20A7 JUMP JUMPDEST SWAP1 POP SWAP11 SWAP10 POP POP POP POP POP POP POP POP POP POP JUMP JUMPDEST PUSH0 DUP2 SWAP1 POP SWAP3 SWAP2 POP POP JUMP JUMPDEST PUSH0 PUSH2 0x2899 DUP3 PUSH2 0x2065 JUMP JUMPDEST PUSH2 0x28A3 DUP2 DUP6 PUSH2 0x2885 JUMP JUMPDEST SWAP4 POP PUSH2 0x28B3 DUP2 DUP6 PUSH1 0x20 DUP7 ADD PUSH2 0x207F JUMP JUMPDEST DUP1 DUP5 ADD SWAP2 POP POP SWAP3 SWAP2 POP POP JUMP JUMPDEST PUSH0 PUSH2 0x28CA DUP3 DUP5 PUSH2 0x288F JUMP JUMPDEST SWAP2 POP DUP2 SWAP1 POP SWAP3 SWAP2 POP POP JUMP JUMPDEST PUSH32 0x4E487B7100000000000000000000000000000000000000000000000000000000 PUSH0 MSTORE PUSH1 0x22 PUSH1 0x4 MSTORE PUSH1 0x24 PUSH0 REVERT JUMPDEST PUSH0 PUSH1 0x2 DUP3 DIV SWAP1 POP PUSH1 0x1 DUP3 AND DUP1 PUSH2 0x2919 JUMPI PUSH1 0x7F DUP3 AND SWAP2 POP JUMPDEST PUSH1 0x20 DUP3 LT DUP2 SUB PUSH2 0x292C JUMPI PUSH2 0x292B PUSH2 0x28D5 JUMP JUMPDEST JUMPDEST POP SWAP2 SWAP1 POP JUMP JUMPDEST PUSH0 DUP2 SWAP1 POP DUP2 PUSH0 MSTORE PUSH1 0x20 PUSH0 KECCAK256 SWAP1 POP SWAP2 SWAP1 POP JUMP JUMPDEST PUSH0 PUSH1 0x20 PUSH1 0x1F DUP4 ADD DIV SWAP1 POP SWAP2 SWAP1 POP JUMP JUMPDEST PUSH0 DUP3 DUP3 SHL SWAP1 POP SWAP3 SWAP2 POP POP JUMP JUMPDEST PUSH0 PUSH1 0x8 DUP4 MUL PUSH2 0x298E PUSH32 0xFFFFFFFFFFFFFFFFFFFFFFFFFFFFFFFFFFFFFFFFFFFFFFFFFFFFFFFFFFFFFFFF DUP3 PUSH2 0x2953 JUMP JUMPDEST PUSH2 0x2998 DUP7 DUP4 PUSH2 0x2953 JUMP JUMPDEST SWAP6 POP DUP1 NOT DUP5 AND SWAP4 POP DUP1 DUP7 AND DUP5 OR SWAP3 POP POP POP SWAP4 SWAP3 POP POP POP JUMP JUMPDEST PUSH0 DUP2 SWAP1 POP SWAP2 SWAP1 POP JUMP JUMPDEST PUSH0 PUSH2 0x29D3 PUSH2 0x29CE PUSH2 0x29C9 DUP5 PUSH2 0x20FF JUMP JUMPDEST PUSH2 0x29B0 JUMP JUMPDEST PUSH2 0x20FF JUMP JUMPDEST SWAP1 POP SWAP2 SWAP1 POP JUMP JUMPDEST PUSH0 DUP2 SWAP1 POP SWAP2 SWAP1 POP JUMP JUMPDEST PUSH2 0x29EC DUP4 PUSH2 0x29B9 JUMP JUMPDEST PUSH2 0x2A00 PUSH2 0x29F8 DUP3 PUSH2 0x29DA JUMP JUMPDEST DUP5 DUP5 SLOAD PUSH2 0x295F JUMP JUMPDEST DUP3 SSTORE POP POP POP POP JUMP JUMPDEST PUSH0 SWAP1 JUMP JUMPDEST PUSH2 0x2A14 PUSH2 0x2A08 JUMP JUMPDEST PUSH2 0x2A1F DUP2 DUP5 DUP5 PUSH2 0x29E3 JUMP JUMPDEST POP POP POP JUMP JUMPDEST JUMPDEST DUP2 DUP2 LT ISZERO PUSH2 0x2A42 JUMPI PUSH2 0x2A37 PUSH0 DUP3 PUSH2 0x2A0C JUMP JUMPDEST PUSH1 0x1 DUP2 ADD SWAP1 POP PUSH2 0x2A25 JUMP JUMPDEST POP POP JUMP JUMPDEST PUSH1 0x1F DUP3 GT ISZERO PUSH2 0x2A87 JUMPI PUSH2 0x2A58 DUP2 PUSH2 0x2932 JUMP JUMPDEST PUSH2 0x2A61 DUP5 PUSH2 0x2944 JUMP JUMPDEST DUP2 ADD PUSH1 0x20 DUP6 LT ISZERO PUSH2 0x2A70 JUMPI DUP2 SWAP1 POP JUMPDEST PUSH2 0x2A84 PUSH2 0x2A7C DUP6 PUSH2 0x2944 JUMP JUMPDEST DUP4 ADD DUP3 PUSH2 0x2A24 JUMP JUMPDEST POP POP JUMPDEST POP POP POP JUMP JUMPDEST PUSH0 DUP3 DUP3 SHR SWAP1 POP SWAP3 SWAP2 POP POP JUMP JUMPDEST PUSH0 PUSH2 0x2AA7 PUSH0 NOT DUP5 PUSH1 0x8 MUL PUSH2 0x2A8C JUMP JUMPDEST NOT DUP1 DUP4 AND SWAP2 POP POP SWAP3 SWAP2 POP POP JUMP JUMPDEST PUSH0 PUSH2 0x2ABF DUP4 DUP4 PUSH2 0x2A98 JUMP JUMPDEST SWAP2 POP DUP3 PUSH1 0x2 MUL DUP3 OR SWAP1 POP SWAP3 SWAP2 POP POP JUMP JUMPDEST PUSH2 0x2AD8 DUP3 PUSH2 0x2065 JUMP JUMPDEST PUSH8 0xFFFFFFFFFFFFFFFF DUP2 GT ISZERO PUSH2 0x2AF1 JUMPI PUSH2 0x2AF0 PUSH2 0x1E84 JUMP JUMPDEST JUMPDEST PUSH2 0x2AFB DUP3 SLOAD PUSH2 0x2902 JUMP JUMPDEST PUSH2 0x2B06 DUP3 DUP3 DUP6 PUSH2 0x2A46 JUMP JUMPDEST PUSH0 PUSH1 0x20 SWAP1 POP PUSH1 0x1F DUP4 GT PUSH1 0x1 DUP2 EQ PUSH2 0x2B37 JUMPI PUSH0 DUP5 ISZERO PUSH2 0x2B25 JUMPI DUP3 DUP8 ADD MLOAD SWAP1 POP JUMPDEST PUSH2 0x2B2F DUP6 DUP3 PUSH2 0x2AB4 JUMP JUMPDEST DUP7 SSTORE POP PUSH2 0x2B96 JUMP JUMPDEST PUSH1 0x1F NOT DUP5 AND PUSH2 0x2B45 DUP7 PUSH2 0x2932 JUMP JUMPDEST PUSH0 JUMPDEST DUP3 DUP2 LT ISZERO PUSH2 0x2B6C JUMPI DUP5 DUP10 ADD MLOAD DUP3 SSTORE PUSH1 0x1 DUP3 ADD SWAP2 POP PUSH1 0x20 DUP6 ADD SWAP5 POP PUSH1 0x20 DUP2 ADD SWAP1 POP PUSH2 0x2B47 JUMP JUMPDEST DUP7 DUP4 LT ISZERO PUSH2 0x2B89 JUMPI DUP5 DUP10 ADD MLOAD PUSH2 0x2B85 PUSH1 0x1F DUP10 AND DUP3 PUSH2 0x2A98 JUMP JUMPDEST DUP4 SSTORE POP JUMPDEST PUSH1 0x1 PUSH1 0x2 DUP9 MUL ADD DUP9 SSTORE POP POP POP JUMPDEST POP POP POP POP POP POP JUMP INVALID LOG2 PUSH5 0x6970667358 0x22 SLT KECCAK256 0xAB SMOD 0xB0 0xAE SWAP14 CALLVALUE SGT XOR 0xBA 0xC SIGNEXTEND 0x21 POP 0xB7 INVALID MCOPY PUSH16 0xF461A9CAC857E1687BA253435BECF964 PUSH20 0x6F6C634300081800330000000000000000000000 "
    },
    "gasEstimates": {
      "creation": {
        "codeDepositCost": "2244000",
        "executionCost": "2395",
        "totalCost": "2246395"
      },
      "external": {
        "add_bank(string,string,string,string,string,string,string,string,string,string,string)": "infinite",
        "add_data_for_verification(string,string,string,string,string,int256)": "infinite",
        "add_user(string,string,string,string,string,string,string,string,string,string,string)": "infinite",
        "alter_account_doc_bank(string,int256)": "infinite",
        "bankList(uint256)": "infinite",
        "find_user_status(string)": "infinite",
        "fn_mp_isUser(string)": "infinite",
        "get_allbank()": "infinite",
        "get_pending_applications_for_bank(string)": "infinite",
        "mp_accountBank(string)": "infinite",
        "mp_account_doc_bank(string)": "infinite",
        "mp_bank_account_Data(string,uint256)": "infinite",
        "mp_bank_name(string)": "infinite",
        "mp_isUser(string)": "infinite",
        "mp_private_bankKey(string)": "infinite",
        "mp_public_bankKey(string)": "infinite",
        "mp_self_status(string,uint256)": "infinite",
        "mp_user_account_Data(string,uint256)": "infinite",
        "mp_usermap(string)": "infinite",
        "remove_mp_isUser(string)": "infinite",
        "update_user_status(string,string)": "infinite"
      }
    },
    "methodIdentifiers": {
      "add_bank(string,string,string,string,string,string,string,string,string,string,string)": "5bd48d8c",
      "add_data_for_verification(string,string,string,string,string,int256)": "bd9a5f4c",
      "add_user(string,string,string,string,string,string,string,string,string,string,string)": "bc4a1c5e",
      "alter_account_doc_bank(string,int256)": "892f6b66",
      "bankList(uint256)": "cba49c21",
      "find_user_status(string)": "43eeccfe",
      "fn_mp_isUser(string)": "9f132fb1",
      "get_allbank()": "fa1b34c3",
      "get_pending_applications_for_bank(string)": "4b8d8ac4",
      "mp_accountBank(string)": "df2ed0f2",
      "mp_account_doc_bank(string)": "5c94f7ed",
      "mp_bank_account_Data(string,uint256)": "9a5f3628",
      "mp_bank_name(string)": "e111fc50",
      "mp_isUser(string)": "951f54b6",
      "mp_private_bankKey(string)": "1f59ba56",
      "mp_public_bankKey(string)": "b22898f8",
      "mp_self_status(string,uint256)": "41704339",
      "mp_user_account_Data(string,uint256)": "da0bf48a",
      "mp_usermap(string)": "9e1de656",
      "remove_mp_isUser(string)": "f9eacd3b",
      "update_user_status(string,string)": "11a54a57"
    }
  },
  "abi": [
    {
      "inputs": [
        {
          "internalType": "string",
          "name": "name",
          "type": "string"
        },
        {
          "internalType": "string",
          "name": "id",
          "type": "string"
        },
        {
          "internalType": "string",
          "name": "IFSC",
          "type": "string"
        },
        {
          "internalType": "string",
          "name": "nationality",
          "type": "string"
        },
        {
          "internalType": "string",
          "name": "account",
          "type": "string"
        },
        {
          "internalType": "string",
          "name": "MICR",
          "type": "string"
        },
        {
          "internalType": "string",
          "name": "pubkey",
          "type": "string"
        },
        {
          "internalType": "string",
          "name": "prikey",
          "type": "string"
        },
        {
          "internalType": "string",
          "name": "district",
          "type": "string"
        },
        {
          "internalType": "string",
          "name": "branch",
          "type": "string"
        },
        {
          "internalType": "string",
          "name": "state",
          "type": "string"
        }
      ],
      "name": "add_bank",
      "outputs": [],
      "stateMutability": "nonpayable",
      "type": "function"
    },
    {
      "inputs": [
        {
          "internalType": "string",
          "name": "account",
          "type": "string"
        },
        {
          "internalType": "string",
          "name": "encrypt_hash_user",
          "type": "string"
        },
        {
          "internalType": "string",
          "name": "encrypt_hash_bank",
          "type": "string"
        },
        {
          "internalType": "string",
          "name": "bank_name",
          "type": "string"
        },
        {
          "internalType": "string",
          "name": "acc_doc_bank",
          "type": "string"
        },
        {
          "internalType": "int256",
          "name": "val",
          "type": "int256"
        }
      ],
      "name": "add_data_for_verification",
      "outputs": [],
      "stateMutability": "nonpayable",
      "type": "function"
    },
    {
      "inputs": [
        {
          "internalType": "string",
          "name": "t_fname",
          "type": "string"
        },
        {
          "internalType": "string",
          "name": "t_lname",
          "type": "string"
        },
        {
          "internalType": "string",
          "name": "t_dob",
          "type": "string"
        },
        {
          "internalType": "string",
          "name": "t_nation",
          "type": "string"
        },
        {
          "internalType": "string",
          "name": "t_email",
          "type": "string"
        },
        {
          "internalType": "string",
          "name": "t_account",
          "type": "string"
        },
        {
          "internalType": "string",
          "name": "fathersName",
          "type": "string"
        },
        {
          "internalType": "string",
          "name": "mothersName",
          "type": "string"
        },
        {
          "internalType": "string",
          "name": "phoneNumber",
          "type": "string"
        },
        {
          "internalType": "string",
          "name": "permanentaddress",
          "type": "string"
        },
        {
          "internalType": "string",
          "name": "localaddress",
          "type": "string"
        }
      ],
      "name": "add_user",
      "outputs": [],
      "stateMutability": "nonpayable",
      "type": "function"
    },
    {
      "inputs": [
        {
          "internalType": "string",
          "name": "str",
          "type": "string"
        },
        {
          "internalType": "int256",
          "name": "val",
          "type": "int256"
        }
      ],
      "name": "alter_account_doc_bank",
      "outputs": [],
      "stateMutability": "nonpayable",
      "type": "function"
    },
    {
      "inputs": [
        {
          "internalType": "uint256",
          "name": "",
          "type": "uint256"
        }
      ],
      "name": "bankList",
      "outputs": [
        {
          "internalType": "string",
          "name": "",
          "type": "string"
        }
      ],
      "stateMutability": "view",
      "type": "function"
    },
    {
      "inputs": [
        {
          "internalType": "string",
          "name": "account",
          "type": "string"
        }
      ],
      "name": "find_user_status",
      "outputs": [
        {
          "internalType": "string[]",
          "name": "",
          "type": "string[]"
        }
      ],
      "stateMutability": "view",
      "type": "function"
    },
    {
      "inputs": [
        {
          "internalType": "string",
          "name": "account",
          "type": "string"
        }
      ],
      "name": "fn_mp_isUser",
      "outputs": [
        {
          "internalType": "int256",
          "name": "",
          "type": "int256"
        }
      ],
      "stateMutability": "view",
      "type": "function"
    },
    {
      "inputs": [],
      "name": "get_allbank",
      "outputs": [
        {
          "internalType": "string[]",
          "name": "",
          "type": "string[]"
        }
      ],
      "stateMutability": "view",
      "type": "function"
    },
    {
      "inputs": [
        {
          "internalType": "string",
          "name": "bankName",
          "type": "string"
        }
      ],
      "name": "get_pending_applications_for_bank",
      "outputs": [
        {
          "internalType": "string[]",
          "name": "",
          "type": "string[]"
        }
      ],
      "stateMutability": "view",
      "type": "function"
    },
    {
      "inputs": [
        {
          "internalType": "string",
          "name": "",
          "type": "string"
        }
      ],
      "name": "mp_accountBank",
      "outputs": [
        {
          "internalType": "string",
          "name": "name",
          "type": "string"
        },
        {
          "internalType": "string",
          "name": "id",
          "type": "string"
        },
        {
          "internalType": "string",
          "name": "IFSC",
          "type": "string"
        },
        {
          "internalType": "string",
          "name": "nationality",
          "type": "string"
        },
        {
          "internalType": "string",
          "name": "account",
          "type": "string"
        },
        {
          "internalType": "string",
          "name": "MICR",
          "type": "string"
        },
        {
          "internalType": "string",
          "name": "branch",
          "type": "string"
        },
        {
          "internalType": "string",
          "name": "district",
          "type": "string"
        },
        {
          "internalType": "string",
          "name": "state",
          "type": "string"
        }
      ],
      "stateMutability": "view",
      "type": "function"
    },
    {
      "inputs": [
        {
          "internalType": "string",
          "name": "",
          "type": "string"
        }
      ],
      "name": "mp_account_doc_bank",
      "outputs": [
        {
          "internalType": "int256",
          "name": "",
          "type": "int256"
        }
      ],
      "stateMutability": "view",
      "type": "function"
    },
    {
      "inputs": [
        {
          "internalType": "string",
          "name": "",
          "type": "string"
        },
        {
          "internalType": "uint256",
          "name": "",
          "type": "uint256"
        }
      ],
      "name": "mp_bank_account_Data",
      "outputs": [
        {
          "internalType": "string",
          "name": "",
          "type": "string"
        }
      ],
      "stateMutability": "view",
      "type": "function"
    },
    {
      "inputs": [
        {
          "internalType": "string",
          "name": "",
          "type": "string"
        }
      ],
      "name": "mp_bank_name",
      "outputs": [
        {
          "internalType": "string",
          "name": "",
          "type": "string"
        }
      ],
      "stateMutability": "view",
      "type": "function"
    },
    {
      "inputs": [
        {
          "internalType": "string",
          "name": "",
          "type": "string"
        }
      ],
      "name": "mp_isUser",
      "outputs": [
        {
          "internalType": "int256",
          "name": "",
          "type": "int256"
        }
      ],
      "stateMutability": "view",
      "type": "function"
    },
    {
      "inputs": [
        {
          "internalType": "string",
          "name": "",
          "type": "string"
        }
      ],
      "name": "mp_private_bankKey",
      "outputs": [
        {
          "internalType": "string",
          "name": "",
          "type": "string"
        }
      ],
      "stateMutability": "view",
      "type": "function"
    },
    {
      "inputs": [
        {
          "internalType": "string",
          "name": "",
          "type": "string"
        }
      ],
      "name": "mp_public_bankKey",
      "outputs": [
        {
          "internalType": "string",
          "name": "",
          "type": "string"
        }
      ],
      "stateMutability": "view",
      "type": "function"
    },
    {
      "inputs": [
        {
          "internalType": "string",
          "name": "",
          "type": "string"
        },
        {
          "internalType": "uint256",
          "name": "",
          "type": "uint256"
        }
      ],
      "name": "mp_self_status",
      "outputs": [
        {
          "internalType": "string",
          "name": "",
          "type": "string"
        }
      ],
      "stateMutability": "view",
      "type": "function"
    },
    {
      "inputs": [
        {
          "internalType": "string",
          "name": "",
          "type": "string"
        },
        {
          "internalType": "uint256",
          "name": "",
          "type": "uint256"
        }
      ],
      "name": "mp_user_account_Data",
      "outputs": [
        {
          "internalType": "string",
          "name": "",
          "type": "string"
        }
      ],
      "stateMutability": "view",
      "type": "function"
    },
    {
      "inputs": [
        {
          "internalType": "string",
          "name": "",
          "type": "string"
        }
      ],
      "name": "mp_usermap",
      "outputs": [
        {
          "internalType": "string",
          "name": "fName",
          "type": "string"
        },
        {
          "internalType": "string",
          "name": "lName",
          "type": "string"
        },
        {
          "internalType": "string",
          "name": "dob",
          "type": "string"
        },
        {
          "internalType": "string",
          "name": "nationality",
          "type": "string"
        },
        {
          "internalType": "string",
          "name": "email_address",
          "type": "string"
        },
        {
          "internalType": "string",
          "name": "account",
          "type": "string"
        },
        {
          "internalType": "string",
          "name": "fathersName",
          "type": "string"
        },
        {
          "internalType": "string",
          "name": "mothersName",
          "type": "string"
        },
        {
          "internalType": "string",
          "name": "phoneNumber",
          "type": "string"
        },
        {
          "internalType": "string",
          "name": "permanentaddress",
          "type": "string"
        },
        {
          "internalType": "string",
          "name": "localaddress",
          "type": "string"
        }
      ],
      "stateMutability": "view",
      "type": "function"
    },
    {
      "inputs": [
        {
          "internalType": "string",
          "name": "account",
          "type": "string"
        }
      ],
      "name": "remove_mp_isUser",
      "outputs": [],
      "stateMutability": "nonpayable",
      "type": "function"
    },
    {
      "inputs": [
        {
          "internalType": "string",
          "name": "account",
          "type": "string"
        },
        {
          "internalType": "string",
          "name": "acc_doc_bank",
          "type": "string"
        }
      ],
      "name": "update_user_status",
      "outputs": [],
      "stateMutability": "nonpayable",
      "type": "function"
    }
  ]
}